:1000000000000420C1010000ED010000ED0100002E
:10001000ED010000ED010000ED010000ED01000028
:10002000ED010000ED010000ED010000ED01000018
:10003000ED010000ED010000ED010000ED01000008
:10004000ED010000ED010000ED010000ED010000F8
:10005000ED010000ED010000ED010000ED010000E8
:10006000ED010000ED010000ED010000ED010000D8
:10007000ED010000ED010000ED010000ED010000C8
:10008000ED010000893B0000ED010000ED010000E2
:10009000ED010000ED010000ED010000ED010000A8
:1000A000ED010000ED010000ED010000394100000C
:1000B000ED010000ED010000ED010000ED01000088
:1000C000ED010000ED010000ED010000ED01000078
:1000D000ED010000ED010000ED010000ED01000068
:1000E000ED010000ED0100003D3C0000ED010000CD
:1000F000ED010000ED010000ED010000ED01000048
:10010000ED010000ED010000ED01000010B5054C0F
:10011000237833B9044B13B10448AFF300800123B3
:10012000237010BD7C000020000000003C51000046
:1001300008B5034B1BB103490348AFF3008008BD6A
:1001400000000000800000203C510000154B002BF7
:1001500008BF134B9D46A3F5803A00218B460F46FE
:100160001348144A121A04F045FE0F4B002B00D01E
:1001700098470E4B002B00D0984700200021040028
:100180000D000D48002802D00C48AFF3008004F0A9
:100190000DFE2000290004F067F904F0F3FD00BF14
:1001A0000000080000000420000000000000000023
:1001B0007C000020F0000020000000000000000093
:1001C000064880470649074A074B9A42BEBF51F886
:1001D000040B42F8040BF8E7FFF7B8FFCD0200006C
:1001E00048510000000000207C000020FEE700BF16
:1001F00080B582B000AF00F025F878600A4BD3F8E4
:1002000008311B0AC3F308033B603B6801337A687B
:10021000B2FBF3F37B60054A7B6813607B6818468A
:100220000837BD4680BD00BF00400E4008000020DA
:1002300080B400AF024B1846BD465DF8047B7047A2
:10024000005A620280B483B000AF164BD3F89430EA
:1002500003F00703032B08D0042B02D0022B08D095
:100260000BE0114B1B687B600BE04FF400437B609D
:1002700007E00E4B1B687B6003E00D4B1B687B6047
:1002800000BF084BD3F800311B0A03F01F030133F2
:100290007A68B2FBF3F318460C37BD465DF8047B71
:1002A000704700BF00400E40040000200000002006
:1002B0000C00002080B400AF034B1B681846BD46FD
:1002C0005DF8047B704700BF0000002080B400AFE1
:1002D000074B084A9A60064BD3F88830044A43F427
:1002E0007003C2F8883000BFBD465DF8047B7047DC
:1002F00000ED00E00000000080B400AF4FF40043C8
:100300001846BD465DF8047B704780B400AF4FF4DB
:100310007A731846BD465DF8047B704780B400AF21
:10032000034B1B681846BD465DF8047B704700BF51
:100330000400002080B483B000AF78603960FEE72D
:1003400080B487B000AFF860B9607A60FB6803F1F1
:100350000473DA00BB6813449B007B617B697A6895
:100360001A6000BF1C37BD465DF8047B704780B43F
:1003700085B000AF786039607B6803F10473DA0000
:100380003B6813449B00FB60FB681B6818461437EE
:10039000BD465DF8047B704780B582B000AF7860E1
:1003A0007B681F2B04D940F64E210548FFF7C2FF9A
:1003B00001227B6802FA03F318460837BD4680BD68
:1003C000204E000080B500AF00BF12210348FFF7A8
:1003D000CEFF0346002BF8D100BF80BD04300E4095
:1003E00080B500AFFFF7EEFF034B5B681B0C03F01B
:1003F0000303DBB2184680BD00300E4080B584B0E8
:1004000000AF78600123FB607B68124A934204D8F6
:100410000023FB600023BB6008E07B680E4A934228
:1004200002D80123BB6001E00223BB60FA681021FF
:100430000A48FFF785FF094BD3F8003123F080729B
:10044000BB681B0605491343C1F8003100BF1037D4
:10045000BD4680BD0048E8010090D00300400E403A
:1004600080B483B000AF054B1B687B607B68184687
:100470000C37BD465DF8047B704700BF10000020BC
:1004800080B582B000AFFFF7DDFE7860064BD3F891
:1004900000311B0A03F01F0301337A6802FB03F3E8
:1004A00018460837BD4680BD00400E4080B582B07A
:1004B00000AF0F4800F066FB0346FB70FB78072B8C
:1004C00005D0092B07D1FFF7BDFE78600BE0FFF7E1
:1004D000C7FF786007E000237B6040F69A2105485B
:1004E000FFF728FF00BF7B6818460837BD4680BD70
:1004F00006000E00984E000080B584B000AF786012
:100500007B68002B1CD1204800F03CFB0346FB72AB
:1005100000BFFB7A013B072B28D801A252F823F039
:100520004F0500006D0500006D0500005D05000031
:100530006D0500006D050000550500006505000013
:1005400040F6BA211148FFF7F5FE002317E000231B
:10055000FB6013E0FFF784FFF8600FE0FFF7AAFEEF
:10056000F8600BE0FFF78CFFF86007E00023FB600A
:1005700040F6D1210548FFF7DDFE00BFFB681846B5
:100580001037BD4680BD00BFB8003200984E000055
:1005900080B584B000AF78603960204B5B6803F0B1
:1005A0004073FB600023BB6012E01D4ABB68DB00A8
:1005B00013441A793B68DBB29A4206D1184ABB68E9
:1005C00052F833307A689A4206D9BB680133BB606F
:1005D000BB68042BE9D900E000BFBB68052B07D13D
:1005E0000323FB6040F6D8310E48FFF7A3FE05E079
:1005F0000B4ABB68DB0013445B79FB60FB681B069E
:10060000FB60064B5B6823F040720449FB681343B0
:100610004B6000BF1037BD4680BD00BF00000E40DC
:10062000AC4E0000984E000080B582B000AF0E4B7B
:100630001B6C002B14BF01230023FB710A4B41F6F6
:1006400071321A64FFF7F4FD034600211846FFF7E4
:100650009FFFFB79002B02D0034B00221A6400BFDE
:100660000837BD4680BD00BF00000E4080B584B095
:1006700000AF786039600C4B1B6C002B14BF01235A
:100680000023FB73084B41F671321A6439687868AD
:10069000FFF77EFFFB7B002B02D0034B00221A6486
:1006A00000BF1037BD4680BD00000E4080B487B04B
:1006B00000AF78600F237B617B6803333B617B690C
:1006C000FB60FA683B69934228BF1346BB60BB6876
:1006D0001B07BB60BB6818461C37BD465DF8047B32
:1006E0007047000080B400AF044B5B6A1B0903F045
:1006F00003031846BD465DF8047B704700400E407A
:1007000080B483B000AF7860074B5B6A23F030029F
:100710007B681B01044913434B6200BF0C37BD4685
:100720005DF8047B704700BF00400E4090B585B077
:1007300000AF78600023BB607B683C4A93420BD0DB
:100740003B4A934208D03B4A934205D040F6C94108
:100750003948FFF7EFFD00E000BF786800F012FABB
:100760000346FB607B68314A93420CD0304A934287
:1007700010D0304A934214D1304BD3F8803003F07C
:100780000703FB6013E02D4BD3F8843003F007031D
:10079000FB600CE0294BD3F8883003F00703FB60C3
:1007A00005E040F6F8412448FFF7C4FD00BFFB68B0
:1007B000042B2ED801A252F823F000BF0D08000030
:1007C000D1070000D9070000E9070000E107000099
:1007D000FFF792FDB86024E0FFF7A0FDB86020E0CD
:1007E000FFF793FDB8601CE0FFF702FD0446134BD2
:1007F000D3F800311B0E03F0010301331846FFF755
:10080000CBFD0346B4FBF3F3BB600AE00023BB60FF
:1008100007E00023BB6040F64A510748FFF78AFD16
:1008200000BFBB6818461437BD4690BD03002000CA
:100830000500240002001E00984E000000400E40FB
:1008400080B483B000AF78600A4BD3F8443103F032
:100850000103002B08D100BF064BD3F840217B6871
:100860001340002BF8D100E000BF0C37BD465DF807
:10087000047B704700400E4080B400AF00BFBD460F
:100880005DF8047B704780B400AF00BFBD465DF8E3
:10089000047B704780B586B000AF78600B46FB7074
:1008A00000233B617B681B0A03F00F03013B092B0C
:1008B00032D801A252F823F0E1080000ED08000050
:1008C0001909000019090000E7080000F3080000FA
:1008D000FD080000190900000709000013090000C5
:1008E0001A4B7B611EE01A4B7B611BE0194B7B614D
:1008F00018E0194B7B6101233B6113E0174B7B61CF
:1009000010233B610EE0164B7B614FF480333B615B
:1009100008E0144B7B6105E041F23C111248FFF7FF
:1009200009FD10E07B681B0B03F01F03FB603B69B4
:10093000002B02D03869FFF783FFFB781A46F9686D
:100940007869FFF7FDFC1837BD4680BD00400E40BA
:10095000B0400E40C0400E40E0400E40E8400E4027
:10096000F0400E4050410E40984E000080B584B0DB
:1009700000AF78607B6803F47813B3F5A01F7DD0D7
:10098000B3F5A01F1AD8B3F5202F50D0B3F5202F00
:1009900008D8B3F5003F4ED0B3F5802F38D0002BE8
:1009A00032D0D8E0B3F5602F00F0C880B3F5801FD7
:1009B00000F0C880B3F5402F4CD0CCE0B3F5001F59
:1009C00000F08B80B3F5001F0AD8B3F5D01F00F0FC
:1009D0008980B3F5F01F4CD0B3F5B01F5CD0BAE0FE
:1009E000B3F5381F6AD0B3F5381F04D8B3F5101F1C
:1009F00000F09F80AFE0B3F5401F00F08680B3F5B4
:100A0000481F00F0A380A6E0FFF71CFCF860AAE0F6
:100A1000FFF718FCF860564BD3F80C311B0AC3F3F0
:100A200008030133FA68B2FBF3F3FB609BE0FFF7C6
:100A300009FCF86097E0FFF705FCF8604C4BD3F831
:100A400008311B0AC3F308030133FA68B2FBF3F35E
:100A5000FB6088E0FFF7F6FBF860454BD3F81431F4
:100A60001B0A03F01F030133FA68B2FBF3F3FB60C8
:100A700079E04048FFF75AFEF86074E03E48FFF71F
:100A800055FEF8603A4BD3F8303103F00303FA68AF
:100A900022FA03F3FB6066E03648FFF747FEF86092
:100AA000334BD3F8203103F00F031846FFF774FCE3
:100AB0000246FB68B3FBF2F3FB6054E02D48FFF7FE
:100AC00035FEF8602A4BD3F820311B0903F00303ED
:100AD000FA6822FA03F3FB6045E02848FFF726FE98
:100AE000F86040E02548FFF721FEF860204BD3F87E
:100AF00028311B0903F003031846FFF74DFC02469B
:100B0000FB68B3FBF2F3FB602DE01C48FFF70EFE21
:100B1000F860174BD3F828311B0A03F003030433A2
:100B20001846FFF739FC0246FB68B3FBF2F3FB60A3
:100B300019E01148FFF7FAFDF86014E0FFF7B6FC82
:100B4000F86010E0FFF78CFCF8600CE00020FFF785
:100B5000D3FCF86007E00023FB6041F26221084803
:100B6000FFF7E8FB00BFFB6818461037BD4680BDA5
:100B700000400E4002001E0005002400030020007B
:100B8000984E000080B584B000AF78600123FB73FD
:100B90007B6803F00F03BB60BB68013B072B00F2CF
:100BA000C48001A252F823F0C90B00001F0C000002
:100BB0004F0C00002B0D0000950C0000C50C000030
:100BC0002B0D0000E90C00005E4BD3F8943003F0CD
:100BD0000703023B052B1ED801A252F823F000BFE9
:100BE000050C0000FF0B0000F90B00000B0C0000CF
:100BF000170C0000110C00000223FB730EE003230E
:100C0000FB730BE00423FB7308E00B23FB7305E08D
:100C10000C23FB7302E00523FB7300BF8DE0494BFF
:100C2000D3F8803003F00703022B06D0042B07D043
:100C3000012B08D10323FB7308E00223FB7305E0BB
:100C40000A23FB7302E00123FB7300BF75E03D4BF9
:100C5000D3F8843003F00703013B032B16D801A21D
:100C600052F823F0750C00007B0C0000870C00008C
:100C7000810C00000323FB730BE00223FB7308E0ED
:100C80000A23FB7305E00623FB7302E00123FB73D9
:100C900000BF52E02B4BD3F8883003F00703022B40
:100CA00006D0042B07D0012B08D10323FB7308E0E7
:100CB0000223FB7305E00A23FB7302E00123FB73AD
:100CC00000BF3AE01F4B1B6F03F00103002B04D061
:100CD000012B05D10923FB7305E00723FB7302E019
:100CE0000123FB7300BF28E0164BD3F85C3103F0FF
:100CF0003003102B0CD0102B02D8002B05D010E0A5
:100D0000202B08D0302B09D00BE00123FB730BE024
:100D10000723FB7308E00423FB7305E00823FB7340
:100D200002E00123FB7300BF07E00023FB7341F2E5
:100D300076610548FFF7FEFA00BFFB7B18461037C7
:100D4000BD4680BD00400E40984E000080B58AB080
:100D500000AF78600B46FB7003237B62032387F8A8
:100D600023300023BB6100237B617B68112B19D1E9
:100D7000FB78042B03D1FFF79DFA78610BE0FB7839
:100D8000052B08D100F0F8F90246BB4B9A4202D974
:100D900000F0F2F978617B69002B03D000217869BB
:100DA00000F070FF7B6803F00F033B613B69013B80
:100DB000072B00F2578101A252F823F0DD0D00004D
:100DC000E90E00001B0F000065100000FD0E000082
:100DD000BD0F000065100000E70F0000FB78023B2C
:100DE0000A2B49D801A252F823F000BF190E0000C7
:100DF000250E0000310E0000430E0000790E0000A9
:100E0000790E0000790E0000790E00006D0E0000D2
:100E1000550E0000610E000004237B62002387F85A
:100E200023302FE003237B62012387F8233029E05E
:100E300002237B62022387F823309048FFF7DEFA13
:100E400020E001237B62032387F823308B48FFF7E0
:100E5000D5FA17E005237B62032387F8233011E0DE
:100E600007237B62062387F823300BE041F23471BD
:100E70008348FFF75FFAFBE041F239718048FFF7E2
:100E800059FAF5E097F82330062B06D097F823306F
:100E900001220121184600F0BDFAFFF7C5FBFFF75C
:100EA000EBFC7B69002B01D0FFF78CFA754A7B6A5B
:100EB00053677548FFF75AFD03461846FFF79EFA39
:100EC000FFF796F9F860FFF78BFA03461946F868C2
:100ED000FFF7CCFB7B69002B03D10121002000F040
:100EE000D1FEFFF7D0FCC3E0684BBB61FB78062B5B
:100EF00004D141F275716248FFF71CFABB69002BFF
:100F000001D0BB6900E0624BBB61FB78062B04D1CA
:100F100041F289715A48FFF70DFABB69002B01D0E5
:100F2000BB6900E05B4BBB61FB78013B092B3BD805
:100F300001A252F823F000BF610F0000670F00000C
:100F4000770F0000A90F0000A90F0000870F000015
:100F5000A90F0000A90F0000A90F0000A30F0000B7
:100F60000023FB6126E001220121002000F052FA5B
:100F70000223FB611EE001220121012000F04AFA58
:100F80000123FB6116E0FFF733F903461846FFF72C
:100F900035FA012202214048FFF7D2F90323FB6111
:100FA00008E00423FB6105E041F2AE713448FFF72D
:100FB000C1F95DE0BB69FA691A6059E0FB78072B5B
:100FC00002D0092B04D007E02E4B00221A6709E05B
:100FD0002C4B01221A6705E041F638012848FFF73B
:100FE000A9F945E044E0FB78013B072B28D801A292
:100FF00052F823F0151000004110000041100000CD
:101000002B10000041100000411000001B100000D8
:101010003B1000000023FB6118E0012201210420A5
:1010200000F0F8F90123FB6110E001220121022008
:1010300000F0F0F90223FB6108E00323FB6105E007
:1010400041F696010E48FFF775F911E00D4BD3F804
:101050005C3123F03002FB691B010A491343C1F8DC
:101060005C3105E041F66D110548FFF763F900BFFB
:101070002837BD4680BD00BF002D31010148E80181
:10108000984E000000400E4000250A0080400E40AF
:1010900088400E4084400E40B0400E4080B483B083
:1010A00000AF78607B68294A93422FD0274A934249
:1010B00010D8274A934221D0254A934203D8254A83
:1010C00093421BD03AE0244A934217D0234A9342DA
:1010D00018D033E0224A934224D0214A934206D8C2
:1010E000204A934216D0204A934217D026E01F4A46
:1010F00093421BD01E4A93421CD01FE01D4BD3F8D5
:1011000080301CE01B4BD3F88C3018E0194BD3F81F
:10111000983014E0174BD3F89C3010E0154BD3F8FF
:10112000A0300CE0134BD3F8A83008E0114BD3F8F3
:10113000AC3004E00F4BD3F8B03000E00023184689
:101140000C37BD465DF8047B704700BF405DC600AC
:1011500080841E0040420F0000093D00C0CF6A009D
:1011600080BA8C010024F400C0EA21010048E801A3
:1011700080D54302B081E00F80B400AF034B1B6801
:101180001846BD465DF8047B704700BF0C00002088
:1011900080B586B000AF78607868FFF77FFF786130
:1011A0007B69002B03D07B69B3F1FF3F04D141F68B
:1011B000FF214F48FFF7BEF84E4B1B683B614D4A7D
:1011C0007B6813601120FFF7DDFC0346052B03D17C
:1011D000FFF72AFAFFF750FB00BF18214648FFF738
:1011E000C6F80346002BF8D17B69B3F1FF3F04D169
:1011F00041F610313E48FFF79DF87B683F4A934225
:101200000DD03F4A934211D03E4A934200D012E0A3
:101210007B6923F0C06343F080637B610BE07B69F3
:1012200023F0C06343F000737B6104E07B6923F02B
:10123000C0637B6100BF1120FFF7A4FC0346052BB0
:1012400002D17868FFF7DAF87A683B699A4203D9E5
:101250000121786800F016FD2B4A7B69136111208B
:10126000FFF790FC0346052B26D1FEF7C1FFF8607F
:10127000FA687B689A4204D941F63C311C48FFF772
:1012800059F81C4B1B68FA689A4204D941F63D3163
:101290001748FFF74FF8174B1B687A689A4204D03B
:1012A00041F63E311248FFF745F8FFF799F803463B
:1012B0001946F868FFF7DAF91448FFF757FB0346B9
:1012C0001846FFF79BF87A683B699A4203D80121D8
:1012D000002000F0D7FC1120FFF754FC0346052B3B
:1012E00001D1FFF7D0FA00BF1837BD4680BD00BF5F
:1012F000984E00000C00002040410E4080841E00EB
:1013000000093D0040420F0000400E4000250A0049
:1013100090B585B000AF78601120FFF733FC03462D
:10132000042B04D141F61D413748FFF703F8012291
:101330000021022000F06EF87B685B78002B07D15B
:101340007B689B78002B03D17B68DB78002B04D073
:1013500041F65B412C48FEF7EDFF0023FB607B6804
:101360001B7C012B04D14FF4E3512748FEF7E2FF29
:101370007B681B7C022B01D10123FB60234B5B6A42
:1013800023F001022149FB6813434B627B681B7801
:101390001A4608211E48FEF7D3FF7B689B88DB02B4
:1013A0007A68527A1146194A0B43D362174B1B6B6A
:1013B00003F07F627B68DB88DB0213437A68927AF2
:1013C0001A437B681B7ADB0142EA03047B681B7AC1
:1013D0001846FFF76BF903460C4A234313637B68F7
:1013E0005B7B1A037B689B7B1B0113437A68D27B70
:1013F0001A437B681B7B1B04044913434B6300BFE8
:101400001437BD4690BD00BF984E000000400E400E
:1014100024400E4080B588B000AF0346FB710B46F8
:10142000BB7113467B71FB79042B3CD801A252F8A7
:1014300023F000BF911400007F1400005B14000033
:10144000491400006D14000001237B6102233B61FD
:101450000123FB610023BB612BE004237B61082394
:101460003B610323FB610223BB6122E010237B610C
:1014700020233B610523FB610423BB6119E040236A
:101480007B6180233B610723FB610623BB6110E086
:101490004FF480737B614FF400733B610923FB6160
:1014A0000823BB6105E041F665514548FEF742FF60
:1014B00083E0BB79002B64D00023FB73FB79022B04
:1014C0001AD1FFF70FF90346002B15D13D4BDB6B0B
:1014D00003F48063002B04D141F674513848FEF7C1
:1014E00029FF0123FB73384B5B6A03F00103012BD7
:1014F00002D10120FFF704F9334A7B69136600BF6C
:10150000B9693248FEF733FF0346002BF8D07B79E8
:10151000002B52D000BFF9692C48FEF728FF034684
:10152000002BF8D0FB79022B47D1FB7B002B44D05A
:10153000254B5B6A03F00103012B05D10122202119
:10154000022000F087F903E00021022000F028F9D2
:10155000022000F03DF8B860012200210220FFF7D0
:1015600059FFB968022000F071F8174A7B691366C9
:1015700000BFF9691548FEF7FAFE0346002BF8D0C4
:101580001BE0114A3B69136600BF0F4BD3F8903044
:101590000121BA6901FA02F21340002BF5D17B79DF
:1015A000002B0AD000BF084BD3F890300121FA6914
:1015B00001FA02F21340002BF5D12037BD4680BD61
:1015C000984E000000300E4000400E4090400E400B
:1015D00080B584B000AF0346FB71FB79013B032B60
:1015E00023D801A252F823F0F91500001D160000BF
:1015F0000516000011160000124B1B6AC3F3080306
:10160000FB601AE00F4B1B6903F07F03FB6014E0E3
:101610000C4B9B6903F07F03FB600EE0094BD3F892
:101620009C30C3F30A03FB6007E00023FB6041F634
:10163000F1510548FEF77EFE00BFFB6818461037E3
:10164000BD4680BD00400E40984E000080B584B07D
:1016500000AF03463960FB71FB79013B032B00F2BD
:101660008C8001A252F823F0791600002D1700009B
:10167000B9160000F31600003B68B3F5007F04D3F1
:1016800041F617614248FEF755FE3B68C3F3080375
:101690003B6000BF1A213F48FEF769FE0346002B5E
:1016A000F8D13D4B1B6A23F4FF7323F001033A4941
:1016B0003A6813430B6266E03B687F2B04D941F61E
:1016C00024613348FEF736FE3B6803F07F033B603E
:1016D00000BF18212F48FEF74AFE0346002BF8D121
:1016E0002D4B1B6923F07F022B493B6813430B6191
:1016F00049E03B687F2B04D941F63F612448FEF75F
:1017000019FE3B6803F07F033B6000BF19212148AD
:10171000FEF72DFE0346002BF8D11F4B9B6923F0EB
:101720007F021D493B6813438B612CE01A4BD3F8B1
:10173000903003F00403002B04D041F64E611448AE
:10174000FEF7F8FD144B5B6A23F03003124A43F0B6
:10175000100353623B68DB0903F00F031846FEF7E2
:10176000A5FFF8600C4B1A6B0C4B13403A681A43F8
:101770000949FB6813430B6305E041F668610448BF
:10178000FEF7D8FD00BF00BF1037BD4680BD00BFCB
:10179000984E000040410E4000400E4000F8FF0F00
:1017A00080B584B000AF03460A46FB711346BB7197
:1017B000FB79022B04D04FF4F4512348FEF7BAFD15
:1017C000FEF790FF0346002B03D14FF44003FB606C
:1017D0001BE0BB79202B04D0302B0AD0002B04D087
:1017E0000BE04FF40003FB600FE04FF44003FB609D
:1017F0000BE04FF44003FB6007E0144BFB6041F645
:101800009B611148FEF796FD00BF00BF104BD3F857
:101810009020FB681340FA689A42F7D1FB6803F402
:101820008003002B0AD00A4BD3F8A03003F4806366
:10183000002B14BF01230023DBB200E00123184674
:101840001037BD4680BD00BF984E0000FF33E10752
:1018500000400E4080B582B000AF0346FB710B46DE
:10186000BB7113467B71FB79022B15D1BB79002B21
:1018700007D00F4B4FF48062C3F8A8200C4ABB7905
:1018800053667B79002B0DD0BA79FB791146184647
:10189000FFF786FF034607E041F6D1610548FEF7F2
:1018A00049FD00E000BF012318460837BD4680BD52
:1018B00000400E40984E000080B500AFFEF798FC47
:1018C00000BF80BD80B487B000AFF860B9607A60B7
:1018D000FB6803F10473DA00BB6813449B007B616F
:1018E0007B697A681A6000BF1C37BD465DF8047BCF
:1018F000704780B485B000AF786039607B6803F1D1
:101900000473DA003B6813449B00FB60FB681B68B0
:1019100018461437BD465DF8047B704780B500AFAC
:1019200000BF12210348FFF7E4FF0346002BF8D164
:1019300000BF80BD04300E4080B500AFFFF7EEFF62
:10194000034B5B681B0C03F00303DBB2184680BD3E
:1019500000300E4080B483B000AF7860044A7B68EA
:10196000D36200BF0C37BD465DF8047B704700BFF3
:1019700000300E4080B400AF034B5B6A1846BD4692
:101980005DF8047B704700BF00300E4080B400AFAC
:10199000044B0022C3F8802100BFBD465DF8047BE4
:1019A000704700BF00400E4080B400AF044B45F6C6
:1019B0000E02C3F8802100BFBD465DF8047B70476E
:1019C00000400E4080B483B000AF0346FB71FB794A
:1019D000C3F10203102202FA03F318460C37BD4686
:1019E0005DF8047B7047000090B585B000AF0346FA
:1019F000FB71FB79002B1BD1484BD3F89030484A40
:101A000013601120FFF7BEF803461A46454B1A70C3
:101A1000FFF784FF444B5B681B0CDBB203F003034E
:101A2000DAB2424B1A703D4B1B69414A136070E0B9
:101A30003E4B1B783C4C1846FFF7C4FF034623611E
:101A4000364BD3F8803103F00103FB60FFF7ACFFA6
:101A50000023BB60324B1B6803F00103BA681343D9
:101A6000BB602F4B1B6803F01003BA681343BB60C5
:101A70002B4B1B6803F04003BA681343BB60284B31
:101A80001B6803F00403BA681343BB60244B1B6854
:101A900003F48073BA681343BB60204ABB681366C3
:101AA000FFF73CFF204B1B6803F01003002B18D0FE
:101AB00000BF1A4BD3F8403103F08073002BF8D1EC
:101AC000164A1B4B1B681361164B1B78052B08D15C
:101AD000184B1C68FFF730FF034619462046FEF7F7
:101AE000C5FD104B1B78052B05D00E4B1B781946F6
:101AF0001120FFF72BF90A4B1B6803F00103002BA1
:101B000002D1064B02221A66FB68002B01D0FFF7B8
:101B10003DFF00BF1437BD4690BD00BF00400E40E2
:101B2000A4000020A800002000300E40A9000020E2
:101B3000AC0000200C00002080B582B000AFFFF7A1
:101B4000EDFE104B1B681B0A03F003037B600D4B7B
:101B50005B681B0C03F003033B607A683B689A42A6
:101B600006D9084B1B68074A43F01003136005E0D1
:101B7000044B1B68034A23F01003136000BF0837AF
:101B8000BD4680BD00300E4080B483B000AF0C4B2A
:101B90001B6803F01003002B0BD00A4B1B691B0CB6
:101BA00003F01F037B607B68082B02D1064B074ABA
:101BB0001A6000BF0C37BD465DF8047B704700BF5C
:101BC00000300E4000400E400C000020C0EA210111
:101BD00080B582B000AF0346FB71FB79002B02D0C9
:101BE0000020FFF701FFFFF7A7FF0B4B1B690A4A15
:101BF00043F00403136130BFFB79002B03D00120B5
:101C0000FFF7F2FE03E0FFF7BFFFFFF755FE00BF4F
:101C10000837BD4680BD00BF00ED00E080B584B050
:101C200000AF0346FB71FB79002B02D00020FFF7C9
:101C3000DBFEFFF781FF114BD3F8803103F0010386
:101C4000FB60FFF7B1FEFB68002B01D0FFF79EFEA3
:101C50000B4B1B690A4A43F00403136130BFFB7945
:101C6000002B03D00120FFF7BFFE03E0FFF78CFF3E
:101C7000FFF722FE00BF1037BD4680BD00400E407A
:101C800000ED00E080B584B000AF78600B46FB70DB
:101C9000154BD3F800311B0A03F01F030133BB605F
:101CA0007B68002B07D1FEF7CDFA0246BB6802FB2A
:101CB00003F3FB6001E07B68FB600C4B1B78002B9F
:101CC00009D0FB680A4A934205D8FB7819460220DE
:101CD00000F010F804E0FB781946002000F00AF844
:101CE00000BF1037BD4680BD00400E40A000002060
:101CF000FF2C310190B587B000AF03460A46FB7157
:101D00001346BB711F4BD3F800311B0A03F01F03AE
:101D100001337B61FEF796FA3861FFF70DFE03464B
:101D2000FB73FA7BFB799A4228D03B697A6902FB04
:101D300003F3BB60FB79022B0CD1BB68124A9342C0
:101D400004D940F2B3411148FEF7F4FA0221386990
:101D5000FEF78CFC0E4CFB791846FFF733FE03466A
:101D60002361BB79002B01D0FFF7D8FDFB79002B55
:101D700005D100213869FEF779FC00E000BF1C376F
:101D8000BD4690BD00400E40002D3101D44E0000F4
:101D900000300E4080B582B000AF78600E4B1B68FB
:101DA00023F440727B685B781B020B4913430B6082
:101DB0007B685B78022B0AD1084B5B6A03F0005307
:101DC000002B04D040F2ED410548FEF7B3FA00BF06
:101DD0000837BD4680BD00BF00300E4000400E40B9
:101DE000D44E000080B400AF01231846BD465DF814
:101DF000047B704780B582B000AF0C4BDB6E0B4AA2
:101E000043F08073D36600210948FFF772FD7860C4
:101E10007B68002B03D0042000F040FD02E000208E
:101E200000F03CFD00BF0837BD4680BD00300E40CD
:101E30004C300E4080B58AB000AF01237B627B6AD4
:101E40001B053B62404BDB6C1B0A03F00F03FB617D
:101E50003E4B1B881A463D4B1B8828335B081344B6
:101E600003F12801FB695A1C13469B001344B1FB84
:101E7000F3F3013BBB61BB697B6107233B613A69BB
:101E80007B69934228BF1346BB61BB691B06BB61DC
:101E9000BB6923F0E063002B04D040F2CE612C48F4
:101EA000FEF748FA3B6A23F4E003002B04D040F22B
:101EB000CF612748FEF73EFA234BDB6C23F0EE623E
:101EC000B9693B6A0B4320491343CB64214BB3F9F7
:101ED0000030002B33DB1F4BB3F90030FB81FA8954
:101EE000FB8928335B08134403F12802FB690133A3
:101EF0005900FB6901335B080B44B2FBF3F3BB6091
:101F0000BB687B6007233B603A687B68934228BFCD
:101F10001346BB60BB681B01BB60BB6823F070034A
:101F2000002B04D040F2E7610948FEF703FA064BA4
:101F30001B6D23F070020449BB6813430B6500BF9F
:101F40002837BD4680BD00BF00300E4098000020FD
:101F5000D44E00009C00002080B483B000AF7860B5
:101F60000B467B807B689AB2054B1A80054A7B88BA
:101F7000138000BF0C37BD465DF8047B704700BF7F
:101F8000980000209C00002080B582B000AF03467E
:101F9000FB71FB79002B02D0012B04D007E0094B29
:101FA000094A9A6509E0074B084A9A6505E040F23C
:101FB00013710748FEF7BEF900BF00BF0837BD46E2
:101FC00080BD00BF00300E4077402057372110B74A
:101FD000D44E000080B584B000AF0346FB710B46C1
:101FE000BB7113467B71334BD3F88031FB60BB79F7
:101FF000032B1DD801A252F823F000BF0D200000D2
:10200000152000001F20000029200000FB68DBB223
:10201000FB6014E0FB681B0ADBB2FB600FE0FB68AF
:102020001B0CDBB2FB600AE0FB681B0EFB6006E0EA
:1020300040F257712048FEF77DF9002336E07B79A6
:10204000002B16D1FB681B03FB60FB6823F4704375
:10205000002B06D040F262711748FEF76BF900239F
:1020600024E0164BDB6E23F470421449FB681343E3
:10207000CB667B79012B18D1FB681B03FB60FB68E7
:1020800023F47043002B06D040F26E710A48FEF72D
:1020900051F900230AE0094BD3F8EC3023F47042E5
:1020A0000649FB681343C1F8EC300123184610378A
:1020B000BD4680BDB081E00FD44E000000300E4020
:1020C00080B588B000AFF860B96011461A460B467B
:1020D000FB711346BB710023FB610023BB61BB791D
:1020E0001B02FA79002A01D0012200E000221343EA
:1020F0007B617B6940F2011293422AD0B3F5817F64
:1021000007D2012B19D0012B47D3B3F5807F50D0D4
:1021100073E040F20122934227D040F20122934221
:1021200003D8B3F5007F50D067E0B3F5407F58D0B7
:1021300040F20132934224D05FE0384BD3F874313F
:10214000FB61FB691B0ADBB2BB61FB69DBB2FB61B4
:1021500059E0324BD3F87431FB61FB691B0EBB6154
:10216000FB691B0CDBB2FB614DE02C4BD3F87831E3
:10217000FB61FB691B0ADBB2BB61FB69DBB2FB6184
:1021800041E0264BD3F87831FB61FB691B0EBB6144
:10219000FB691B0CDBB2FB6135E0204BD3F86C31E3
:1021A000FB61FB691B0ADBB2BB61FB69DBB2FB6154
:1021B00029E01A4BD3F86C31FB61FB691B0EBB6144
:1021C000FB691B0CDBB2FB611DE0144BD3F87031D3
:1021D000FB61FB691B0ADBB2BB61FB69DBB2FB6124
:1021E00011E00E4BD3F87031FB61FB691B0EBB6134
:1021F000FB691B0CDBB2FB6105E040F2D3710848C0
:10220000FEF798F800BFFB68FA691A60BB68BA6904
:102210001A6000BF2037BD4680BD00BFB081E00F0F
:10222000D44E000080B584B000AF0346FB7100BF00
:10223000364B9B6F03F00103002BF9D1334B1B6C22
:1022400003F00303FB60FB68002B04D001220D2187
:102250002F48FFF737FBFB68DBB2FA799A4208D1C7
:10226000FB79002B4ED100220D212948FFF72AFBD4
:1022700048E0FB68032B02D0FB68002B20D1FB79E0
:10228000022B02D0FB79012B1AD14FF40020FFF76B
:1022900061FB00BF1D4B9B6F03F00103002BF9D1C5
:1022A0001A4B1B6C23F00303184A43F00103136419
:1022B00000BFFFF75FFB034603F40023002BF8D0B9
:1022C00000BF124B9B6F03F00103002BF9D10F4BA2
:1022D0001B6C23F00302FB790C4913430B6400BF12
:1022E0000A4B9B6F03F00103002BF9D1FB79002B04
:1022F00014BF01230023DBB21A460D210448FFF767
:10230000E1FA00E000BF1037BD4680BD00300E404E
:1023100054300E4080B584B000AF78606B4B022221
:102320009A636A4B9B6B03F00F03022B06D040F6B7
:102330006D016748FDF7FEFF0023C3E0FFF752FD84
:102340007B681B89C82B04D940F677016048FDF7EC
:10235000F1FF7B689A887B681B899A4204D940F612
:1023600078015B48FDF7E6FF7B68B3F90C30C82BBA
:1023700004DD40F679015648FDF7DCFF7B685B78A9
:10238000012B09D17B689B88C82B12D940F67D01AF
:102390004F48FDF7CFFF0CE07B685B78022B08D13C
:1023A0007B689B880A2B04D940F682014848FDF7D8
:1023B000C1FF7B68DB8842F21072934204D940F679
:1023C0008A014348FDF7B6FF7B68DB884A2B02D8B9
:1023D0000023FB6015E07B68DB88B3F5FA7F03D24E
:1023E0004FF08053FB600CE07B68DB8840F6C31243
:1023F000934203D84FF00053FB6002E04FF040538C
:10240000FB60324BDB6C23F0405323F001037A680E
:10241000B2F90C20002A01DB012100E00021FA685A
:102420000A432A491343CB64284BD3F8EC30274A9C
:1024300043F44073C2F8EC30FFF7DCFC7B681B8987
:102440001A467B68B3F90C3019461046FFF784FD35
:102450007B689A881F4B1A807B689B88184600F01F
:10246000A9F97B689B7B1846FFF78EFD7B685B882C
:1024700001220121184600F031F8034683F00103E0
:10248000DBB2002B06D040F6C1011148FDF752FF28
:10249000002317E00D4BDB6B0C4A43F48063D363DE
:1024A0007B685B781846FFF7BDFE7B689B7A202B24
:1024B00001D1012300E000231A4605210648FFF759
:1024C00001FA012318461037BD4680BD00300E408A
:1024D000D44E00009A0000203C300E4090B595B0DC
:1024E00000AF78600B46FB701346BB700023FB64A3
:1024F00000237B6407F1240300221A605A609A606B
:1025000007F1180300221A605A609A6007F10C0361
:1025100000221A605A609A6007F1080300210A46F7
:102520001A800A469A707B68B3F5E16F06D37B6820
:1025300040F6B832934201D8012300E0002387F827
:10254000433097F8433003F0010387F8433097F89E
:10255000433083F00103DBB2002B06D040F60611B6
:102560009148FDF7E7FE002319E17B68B3F5E16FC1
:102570008CBF0123002387F8423097F84230002BAC
:102580000AD04FF4E163FB6440F6B8337B647A6CA5
:10259000FB6CD31ABB6409E04FF49663FB644FF401
:1025A000E1637B647A6CFB6CD31ABB6497F84230AE
:1025B000002B0BD07D4BD3F868313B623B6A1B0E7E
:1025C0007B613B6A1B0CDBB23B620AE0774BD3F8C2
:1025D00068313B623B6A1B0ADBB27B613B6ADBB260
:1025E0003B62734BDB6C1B0FDBB203F00303DBB20C
:1025F0003B723B7A97F8422007F10C0107F1180073
:10260000FFF75EFD6A4BD3F8EC301B0ADBB203F038
:102610000303DBB27B727C7A97F8422007F10C034C
:10262000191D07F11803181D2346FFF749FD7A68A5
:10263000FB6CD31A79693A6A8A1A02FB03F2BB6C03
:10264000B2FBF3F3FB62FA6A3B6A1344FB627A68FB
:10265000FB6CD31AF968BA698A1A02FB03F2BB6CE5
:10266000B2FBF3F37B627A6ABB6913447B627A68DC
:10267000FB6CD31A3969FA698A1A02FB03F2BB6C44
:10268000B2FBF3F3BB62BA6AFB691344BB62FA6A3A
:102690007B699A4213D8FA6A3B6A9A420FD3BA6AA4
:1026A0003B699A420BD8BA6AFB699A4207D37A6AA5
:1026B000FB689A4203D87A6ABB699A4206D240F60E
:1026C00054113948FDF736FE002368E0BB78002B33
:1026D00012D0374BDB6D23F4FE4323F00203FA6A7A
:1026E0001202134397F84220002A01D0022200E090
:1026F00000222F491343CB65FB78002B4ED0397A4B
:1027000097F8423000221846FFF764FC034683F036
:102710000103DBB2002B06D040F663112248FDF71F
:1027200009FE00233BE0797A97F8423001221846EF
:10273000FFF750FC034683F00103DBB2002B06D009
:1027400040F66B111848FDF7F5FD002327E07B6A82
:10275000FB63BB6ABB63BA6BFB6B934238BF134628
:102760007B627B6A7B63E7233B633A6B7B6B9342C1
:1027700028BF13467B620E4B5B6E23F4FF7323F07E
:1027800001037A6A5200134397F84220002A01D0CD
:10279000012200E00022064913434B66012318463C
:1027A0005437BD4690BD00BFD44E0000B081E00F4D
:1027B00000300E4080B584B000AF78600023FB602D
:1027C000344B1B6F03F00703BB60324BDB6C03F031
:1027D0000103002B14D0BB68012B11D97B68132B8C
:1027E00002D80423FB603DE07B68132B05D97B688E
:1027F000272B02D80823FB6034E01023FB6031E074
:10280000244BDB6C03F00103002B14D1BB68012BBC
:1028100011D87B68092B02D80423FB6022E07B6877
:10282000092B05D97B68132B02D80823FB6019E01C
:102830001023FB6016E0174BDB6C03F00103002B49
:102840000BD0BB68012B08D87B68272B02D8082344
:10285000FB6007E01023FB6004E040F6A9110E487E
:10286000FDF768FDFB68013BFB60FB681A02FB6833
:102870001B031343FB60074BDB6C23F47F420549CA
:10288000FB681343CB64FFF7D5FA00BF1037BD4692
:1028900080BD00BF00300E40D44E000080B584B033
:1028A00000AF0346FB7100211148FFF722F8F860E2
:1028B000FB68002B02D1FB79012B07D9FB68002BA9
:1028C00004D140F6C8110B48FDF734FD0A4B1B6FCD
:1028D00023F00702FB79084913430B67074B1B885A
:1028E0001846FFF767FF00BF1037BD4680BD00BF29
:1028F0004C300E40D44E000000300E409A000020B4
:1029000080B485B000AF786039607B6803F1C06344
:10291000FB60FB683A681A6000BF1437BD465DF87B
:10292000047B704780B485B000AF786039607B6805
:1029300003F18063FB60FB683A681A6000BF1437DC
:10294000BD465DF8047B704780B584B000AFF86089
:10295000B9607A60B968F868FFF7E4FF7968F868E9
:10296000FFF7CEFF00BF1037BD4680BD80B582B0F7
:1029700000AF03463960FB71FB79002B38D0FB793F
:10298000012B32D0FB79022B2CD0FB79032B26D0E4
:10299000FB79042B21D0FB79052B1BD0FB79062B6F
:1029A00016D0FB79072B11D0FB79082B0CD0FB79C3
:1029B000092B06D0FB790A2B01D107231AE000234B
:1029C00018E04FF4404315E00F2313E0002311E01B
:1029D00000230FE04FF6FF730CE000230AE04FF4F2
:1029E0007F4307E040F6FF7304E04FF6C07301E059
:1029F00040F2FF333A68134103F00103002B04D186
:102A000040F2DD310C48FDF795FCFA7913465B0086
:102A100013441B010C3303F1804303F520430121D0
:102A20003A6801FA02F211461846FFF77BFF00BF31
:102A30000837BD4680BD00BFE84E000080B582B0BB
:102A400000AF03463960FB71FB79002B38D0FB796E
:102A5000012B32D0FB79022B2CD0FB79032B26D013
:102A6000FB79042B21D0FB79052B1BD0FB79062B9E
:102A700016D0FB79072B11D0FB79082B0CD0FB79F2
:102A8000092B06D0FB790A2B01D107231AE000237A
:102A900018E04FF4404315E00F2313E0002311E04A
:102AA00000230FE04FF6FF730CE000230AE04FF421
:102AB0007F4307E040F6FF7304E04FF6C07301E088
:102AC00040F2FF333A68134103F00103002B04D1B5
:102AD00040F20C410C48FDF72DFCFA7913465B00DF
:102AE00013441B010C3303F1804303F52043012100
:102AF0003A6801FA02F211461846FFF701FF00BFDB
:102B00000837BD4680BD00BFE84E000080B582B0EA
:102B100000AF03463960FB71FB79002B1DD0FB79B8
:102B2000012B1AD0FB79022B17D0FB79032B14D081
:102B3000FB79042B16D0FB79052B0ED0FB79062BE5
:102B400010D0FB79072B0DD0FB79082B05D0FB7932
:102B5000092B02D0FB790A2B04D13B6823F0011327
:102B6000002B03D083210B48FDF7E4FBFA791346D1
:102B70005B0013441B0103F1804303F520433A68D3
:102B80004FF001111846FFF7DFFE00BF0837BD46C2
:102B900080BD00BF604F000080B584B000AFB96059
:102BA0007B600346FB731346BB73FB7B002B38D063
:102BB000FB7B012B32D0FB7B022B2CD0FB7B032B2E
:102BC00026D0FB7B042B21D0FB7B052B1BD0FB7B72
:102BD000062B16D0FB7B072B11D0FB7B082B0CD0D0
:102BE000FB7B092B06D0FB7B0A2B01D107231AE0C4
:102BF000002318E04FF4404315E00F2313E00023B7
:102C000011E000230FE04FF6FF730CE000230AE011
:102C10004FF47F4307E040F6FF7304E04FF6C073C4
:102C200001E040F2FF33BA68134103F00103002BC7
:102C300004D140F213113948FDF77CFBBB7B002B1C
:102C40000DD07B68002B05D0FB7BB9681846FFF7D9
:102C5000F5FE04E0FB7BB9681846FFF787FEBB680A
:102C6000072B20D82E49FA7B13465B0013441B0127
:102C70000B4404331A68BB689B000F2101FA03F36D
:102C8000DB431340B97BBA68920001FA02F21146A5
:102C90002348FA7B194313465B0013441B0103448A
:102CA0000433196025E01E49FA7B13465B00134488
:102CB0001B010B4408331A68BB6803F18043083BCF
:102CC0009B000F2101FA03F3DB4302EA0301BA7B05
:102CD000BB6803F18043083B9B0002FA03F31048F2
:102CE000FA7B194313465B0013441B01034408336A
:102CF0001960BB7B002B0DD17B68002B05D0FB7BC3
:102D0000B9681846FFF79AFE04E0FB7BB9681846DD
:102D1000FFF72CFE00BF1037BD4680BD604F00009E
:102D200000A0004080B483B000AF786039607B6859
:102D30003A68DA6300BF0C37BD465DF8047B704724
:102D400080B487B000AFF860B9607A60FB6803F1C7
:102D50000473DA00BB6813449B007B617B697A686B
:102D60001A6000BF1C37BD465DF8047B704780B415
:102D700085B000AF786039607B6803F1C063FB60A9
:102D8000FB683A681A6000BF1437BD465DF8047BE3
:102D9000704780B485B000AF786039607B6803F11C
:102DA0008063FB60FB683A681A6000BF1437BD4659
:102DB0005DF8047B704780B584B000AFF860B960FF
:102DC0007A60B968F868FFF7E4FF7968F868FFF798
:102DD000CEFF00BF1037BD4680BD000080B588B073
:102DE00000AFF860B9607A60FB707B68002B04D19B
:102DF00040F215115448FDF79DFA7B68002B00F056
:102E00009E80FB7803F00303FB70FB681B6823F4D0
:102E10004072FB681A60F868FB781B021A464FF490
:102E20004071FFF7C8FFBB68002B16D1FB68474A0B
:102E3000934204D14648FDF799FDB8600DE0FB6868
:102E4000444A934204D14448FDF790FDB86004E041
:102E500040F22F113C48FDF76DFA4FF0FF33FB6154
:102E6000FB681B6803F00203002B10D0FB78012BDA
:102E700007D0022B08D0002B00D019E0374BFB61A4
:102E800016E0374BFB6113E0364BFB6110E0FB783B
:102E9000012B07D0022B08D0002B00D008E02F4BCD
:102EA000FB6105E0304BFB6102E0304BFB6100BF92
:102EB000BA68FB699A4204D84FF4B2712248FDF710
:102EC00039FAFB782A4AD35C7B617B697A6802FB1A
:102ED00003F33B613B69002B05D140F275111A48A1
:102EE000FDF728FA2CE07B68DB00BA68D21A3B6950
:102EF00013445A1E3B69B2FBF3F3013BBB61BB6950
:102F0000002B04DA40F27B110F48FDF713FABB697E
:102F1000B3F5007F04D34FF4BE710B48FDF70AFAF6
:102F2000FB681B6803F00203002B04D0BB69002B75
:102F300001D10123BB61BA69FB681A6100E000BFDF
:102F40002037BD4680BD00BF784F000000C0004064
:102F50000082040000C400400092040080841E002F
:102F6000404B4C00809FD50040548900002D31011A
:102F7000744F000080B582B000AF78600B46FB70E4
:102F80007B680B4A934208D07B680A4A934204D07C
:102F900040F295110848FDF7CDF97B68FA780021D9
:102FA0001846FFF7CDFE00BF0837BD4680BD00BF05
:102FB00000C0004000C40040784F000080B582B0DF
:102FC00000AF786039607B68174A934208D07B680D
:102FD000164A934204D04FF4D5711548FDF7AAF96B
:102FE0007B6800221A6413497868FFF79BFE7868B3
:102FF0003B685B7883F00103DBB21A460121FFF7DF
:103000009FFE3B6859683B689A683B681B7B786801
:10301000FFF7E4FE3B681B7819467868FFF7AAFFC4
:1030200000BF0837BD4680BD00C0004000C400405E
:10303000784F0000FFFF070080B582B000AF7860D6
:103040000B46FB707B680A4A934203D0EA21094889
:10305000FDF770F9FB78002B03D07B6801225A60E2
:1030600002E07B6802225A6000BF0837BD4680BD7F
:10307000006004408C4F000080B584B000AF7860E1
:1030800039600023FB607B68374A934204D04FF4D9
:10309000A5713648FDF74EF93B681B7883F00103B4
:1030A000DBB2002B08D07B689B6803F00103002B88
:1030B00002D07B6802225A603B685B78002B03D009
:1030C000FB6843F48053FB603B689B78002B03D183
:1030D0003B68DB68002B07D0FB6843F40073FB60A0
:1030E0003B68DA687B681A613B68DB78002B03D0A9
:1030F000FB6843F48073FB603B681B79002B03D0B3
:10310000FB6843F04003FB603B685B79002B03D016
:10311000FB6843F08003FB603B689B799B001A4689
:10312000FB681343FB603B68DB791B011A46FB68B5
:103130001343FB603B681B7A1A46FB681343FB6032
:103140007B68FA681A603B681B78002B08D07B68A4
:103150009B6803F00103002B02D17B6801225A60B7
:1031600000BF1037BD4680BD006004408C4F00009A
:1031700080B58AB000AF0B2387F82530022387F88B
:1031800027300A2387F82430022387F826300123CA
:103190003B7401233B700D4B7B6001233B7200238A
:1031A000FB6002233B624FF47063BB610123FB6150
:1031B0000F237B6107F124023B461946044800F0C7
:1031C000CFFB00BF2837BD4680BD00BFDDFB05003B
:1031D00000C0004080B582B002AF02230093044BD0
:1031E000F3224021034800F097FC00BFBD4680BD9C
:1031F000B000002000C0004090B583B000AF1E4B6F
:103200001B6807EE903AF8EE677A17EE900A01F025
:10321000FFFA15A3D3E9002301F052FB03460C4645
:103220001846214612A3D3E9002301F091F9034681
:103230000C461846214601F055FD03467B60D7ED4C
:10324000017AB2EE027A27EE877AF1EE046AC7EECF
:10325000267A9FED0A7A77EE877AC7ED017A7B6846
:1032600018460C37BD4690BD619FC6DE07F7653F27
:10327000CDCCCCCCCC6C4740B0000020000000424C
:1032800080B485B000AF786039607B6803F1C063BB
:10329000FB60FB683A681A6000BF1437BD465DF8F2
:1032A000047B704780B485B000AF786039607B687C
:1032B00003F18063FB60FB683A681A6000BF143753
:1032C000BD465DF8047B704780B582B000AF034611
:1032D0003960FB71FB79002B38D0FB79012B32D0A0
:1032E000FB79022B2CD0FB79032B26D0FB79042B06
:1032F00021D0FB79052B1BD0FB79062B16D0FB794F
:10330000072B11D0FB79082B0CD0FB79092B06D0A9
:10331000FB790A2B01D107231AE0002318E04FF4B0
:10332000404315E00F2313E0002311E000230FE0DA
:103330004FF6FF730CE000230AE04FF47F4307E0F1
:1033400040F6FF7304E04FF6C07301E040F2FF3334
:103350003A68134103F00103002B04D140F2DD3140
:103360000C48FCF7E7FFFA7913465B0013441B0196
:103370000C3303F1804303F5204301213A6801FA3D
:1033800002F211461846FFF78DFF00BF0837BD4611
:1033900080BD00BFA44F000080B582B000AF0346DF
:1033A0003960FB71FB79002B38D0FB79012B32D0CF
:1033B000FB79022B2CD0FB79032B26D0FB79042B35
:1033C00021D0FB79052B1BD0FB79062B16D0FB797E
:1033D000072B11D0FB79082B0CD0FB79092B06D0D9
:1033E000FB790A2B01D107231AE0002318E04FF4E0
:1033F000404315E00F2313E0002311E000230FE00A
:103400004FF6FF730CE000230AE04FF47F4307E020
:1034100040F6FF7304E04FF6C07301E040F2FF3363
:103420003A68134103F00103002B04D140F20C4130
:103430000C48FCF77FFFFA7913465B0013441B012D
:103440000C3303F1804303F5204301213A6801FA6C
:1034500002F211461846FFF713FF00BF0837BD46BA
:1034600080BD00BFA44F000080B500AF00F096F80B
:1034700000F0B4F80549064800F00CF800F0E4FE4E
:1034800000F034FFFFF774FE00BF80BDCDCCCC3D13
:103490006666464080B58CB000AF78603960002326
:1034A0003B7200237B721C23BB720023FB72002340
:1034B0003B7300237B737B683B613B687B6101232B
:1034C00087F828300423FB6200233B760123FB614D
:1034D000002387F8203002237B6207F10803194696
:1034E000034800F06FFD00BF3037BD4680BD00BF10
:1034F0000060044080B500AF00F0DCFE034603F03E
:103500000403002B03D175210448FCF713FF0420AA
:1035100000F0BAFEFFF75EFE00BF80BD1C50000049
:1035200080B500AF012000F0AFFE89210248FCF712
:1035300001FF00BF80BD00BF1C50000080B500AF80
:10354000022000F0A1FE9B210248FCF7F3FE00BF21
:1035500080BD00BF1C50000080B582B000AF0820C5
:1035600000F092FEFFF748FE7860D7ED017A9FEDFC
:103570000A7AF4EEC77AF1EE10FA04DB0521052091
:10358000FFF70AFF03E005210520FFF79DFE00BFBE
:103590000837BD4680BD00BF0000A04280B500AF27
:1035A00001210B48FDF776F9002200210120FDF7EB
:1035B00031FF0A210748FDF7C9FB01210648FDF745
:1035C00069F9002200210020FDF724FF00BF80BD23
:1035D0004041050002001E0000250A0080B500AF32
:1035E00001211848FDF756F900210520FFF78EFA52
:1035F0000023042204210520FFF7CEFA0021052034
:10360000FFF784FA0023042205210520FFF7C4FAFE
:103610004FF001110120FFF779FA012304220A215A
:103620000120FFF7B9FA012308220A210220FFF73F
:10363000B3FA012308220B210220FFF7ADFA00BFE5
:1036400080BD00BF00350A0080B483B000AF0346E0
:10365000FB7197F90730002B0BDBFB7903F01F029E
:10366000074997F907305B09012000FA02F241F897
:10367000232000BF0C37BD465DF8047B704700BFB8
:1036800000E100E080B485B000AF786039607B680D
:1036900003F10473DA003B6813449B00FB60FB6892
:1036A0001B6818461437BD465DF8047B704780B42C
:1036B00085B000AF786039607B6803F1C063FB6060
:1036C000FB683A681A6000BF1437BD465DF8047B9A
:1036D000704780B485B000AF786039607B6803F1D3
:1036E0008063FB60FB683A681A6000BF1437BD4610
:1036F0005DF8047B7047000080B582B000AF0346E0
:103700003960FB71FB79002B38D0FB79012B32D06B
:10371000FB79022B2CD0FB79032B26D0FB79042BD1
:1037200021D0FB79052B1BD0FB79062B16D0FB791A
:10373000072B11D0FB79082B0CD0FB79092B06D075
:10374000FB790A2B01D107231AE0002318E04FF47C
:10375000404315E00F2313E0002311E000230FE0A6
:103760004FF6FF730CE000230AE04FF47F4307E0BD
:1037700040F6FF7304E04FF6C07301E040F2FF3300
:103780003A68134103F00103002B04D140F2AE313B
:103790000A48FCF7CFFDFA7913465B0013441B017E
:1037A0001C3303F1804303F5204339681846FFF7C3
:1037B00069FF034618460837BD4680BD38500000F3
:1037C00080B582B000AF03463960FB71FB79002BF6
:1037D00038D0FB79012B32D0FB79022B2CD0FB792E
:1037E000032B26D0FB79042B21D0FB79052B1BD092
:1037F000FB79062B16D0FB79072B11D0FB79082B10
:103800000CD0FB79092B06D0FB790A2B01D10723B9
:103810001AE0002318E04FF4404315E00F2313E0B3
:10382000002311E000230FE04FF6FF730CE00023AC
:103830000AE04FF47F4307E040F6FF7304E04FF6E1
:10384000C07301E040F2FF333A68134103F0010313
:10385000002B04D140F2DD310C48FCF76BFDFA7906
:1038600013465B0013441B010C3303F1804303F543
:10387000204301213A6801FA02F211461846FFF787
:1038800028FF00BF0837BD4680BD00BF385000008C
:1038900080B582B000AF03463960FB71FB79002B25
:1038A00038D0FB79012B32D0FB79022B2CD0FB795D
:1038B000032B26D0FB79042B21D0FB79052B1BD0C1
:1038C000FB79062B16D0FB79072B11D0FB79082B3F
:1038D0000CD0FB79092B06D0FB790A2B01D10723E9
:1038E0001AE0002318E04FF4404315E00F2313E0E3
:1038F000002311E000230FE04FF6FF730CE00023DC
:103900000AE04FF47F4307E040F6FF7304E04FF610
:10391000C07301E040F2FF333A68134103F0010342
:10392000002B04D140F20C410C48FCF703FDFA795E
:1039300013465B0013441B010C3303F1804303F572
:10394000204301213A6801FA02F211461846FFF7B6
:10395000AEFE00BF0837BD4680BD00BF3850000036
:1039600080B588B000AFF860B9607A60FB683A4A09
:10397000934203D101213948FCF78CFFFB68384A98
:10398000934203D101213748FCF784FFFB685B6B4E
:1039900003F00103002B10D1FB6801229A63FB683E
:1039A0005B6B03F00103002B03D143212E48FCF78E
:1039B000C1FCFB680122DA630CE0FB680122DA63D8
:1039C000FB685B6B03F00103002B03D04821264802
:1039D000FCF7B0FCBB681B7C3B77BB681B783B7477
:1039E000BB685B68BB61BB681B7A7B74BB68DB68C8
:1039F0007B6107F110031946F868FFF7DFFABB682F
:103A00009A69BB685B691A43FB689A64BB681A6A67
:103A1000BB68DB691A43FB685A647968F86800F090
:103A200025F8FB684FF4E072DA63FB684FF4F0723C
:103A30001A64FB68084A934203D11120FFF704FE81
:103A400006E0FB68064A934202D12A20FFF7FCFDFC
:103A500000BF2037BD4680BD00C00040008204008A
:103A600000C4004000920400B050000080B584B053
:103A700000AF786039603B689A783B681B781946DC
:103A80001046FFF739FE0346002B03D17021214871
:103A9000FCF750FC3B68DA783B685B7819461046C7
:103AA000FFF72AFE0346002B03D171211948FCF7CA
:103AB00041FC3B689A783B681B7819461046FFF733
:103AC000E7FE0023FB6012E03B68DA783B685B7836
:103AD00019461046FFF774FE3B68DA783B685B785E
:103AE00019461046FFF7D4FEFB680133FB60FB6804
:103AF000082BE9DD3B68DA783B685B7819461046AD
:103B0000FFF7C6FE7B6820225A6000BF1037BD4613
:103B100080BD00BFB050000080B584B000AFF86039
:103B2000B9607A603B60164AFB685360144ABB6810
:103B30009360134ABB695361114A7B68D360104A92
:103B40003B681361FB689B6803F0E003002B03D024
:103B500093210C48FCF7EEFB022000F0E1FB084B40
:103B600000221A70064B5B6801225A60044B9A6867
:103B7000034B5B685200DA6200BF1037BD4680BD60
:103B8000B4000020B050000080B582B000AF284BD8
:103B90005B68284A934203D0AC212748FCF7CAFB54
:103BA000244B5A6B234B1B6C13407B60214A7B6870
:103BB000D3637B6803F04003002B0BD01D4B5B6B82
:103BC00003F04003002B03D0B1211B48FCF7B2FBEC
:103BD00000F08EF87B6803F08003002B0BD0154BB0
:103BE0005B6B03F08003002B03D0B5211248FCF778
:103BF000A1FB00F0CFF87B6803F48073002B0BD09F
:103C00000C4B5B6B03F48073002B03D0B9210A4883
:103C1000FCF790FB00F06EF97B6803F02003002BAB
:103C200001D000F007F900BF0837BD4680BD00BFD6
:103C3000B400002000C00040B050000080B582B049
:103C400000AF284B5B68284A934203D0CD21274818
:103C5000FCF770FB244B5A6B234B1B6C13407B60AF
:103C6000214A7B68D3637B6803F04003002B0BD0B1
:103C70001D4B5B6B03F04003002B03D0D2211B488C
:103C8000FCF758FB00F034F87B6803F08003002B4E
:103C90000BD0154B5B6B03F08003002B03D0D621B8
:103CA0001248FCF747FB00F075F87B6803F480735B
:103CB000002B0BD00C4B5B6B03F48073002B03D0F9
:103CC000DA210A48FCF736FB00F014F97B6803F0B0
:103CD0002003002B01D000F0ADF800BF0837BD462F
:103CE00080BD00BFB400002000C40040B050000000
:103CF00080B500AF254B1B78052B3ED801A252F8AA
:103D000023F000BF1D3D00002F3D00004F3D00008F
:103D1000573D0000633D00006F3D00001B4B01223A
:103D20001A701A4B5B68194AD268DA622BE0174B9B
:103D300002221A70154B5B6801225A60134B9B6874
:103D40005A00124B5B6842F00102DA621BE00F4B33
:103D500003221A7017E040F203110D48FCF7EAFA4B
:103D600011E040F207110A48FCF7E4FA0BE040F2D8
:103D70000B110748FCF7DEFA05E040F20F1104488A
:103D8000FCF7D8FA00BF00BF80BD00BFB400002020
:103D9000B050000080B500AF244B1B78052B3DD8F8
:103DA00001A252F823F000BFC13D0000CD3D00004C
:103DB000D93D0000F93D0000053E0000113E000025
:103DC0004FF493711A48FCF7B5FA2DE04FF4957152
:103DD0001748FCF7AFFA27E0144B02221A70134B76
:103DE0005B6801225A60114B9B685A000F4B5B685D
:103DF00042F00102DA6217E04FF49A710C48FCF7C6
:103E000099FA11E04FF49C710948FCF793FA0BE022
:103E10004FF49E710648FCF78DFA05E04FF4A0714F
:103E20000348FCF787FA00BF00BF80BDB400002044
:103E3000B050000080B500AF2C4B1B78052B4CD840
:103E400001A252F823F000BF613E00006D3E000069
:103E5000793E0000853E0000A33E0000CF3E0000FA
:103E600040F257112248FCF765FA3CE040F25B1142
:103E70001F48FCF75FFA36E040F25F111C48FCF780
:103E800059FA30E0194B5B68DA69184B1B6912026A
:103E90001A60164B5B6804225A60144B04221A7095
:103EA00021E0124B5B68D969104B1B691A680F4BF4
:103EB0001B690A431A600D4B5B6808225A600B4B62
:103EC0005B6802225A60094B05221A700BE04FF41E
:103ED000B8710748FCF72EFA05E04FF4BA710448B0
:103EE000FCF728FA00BF00BF80BD00BFB40000206F
:103EF000B050000080B500AF214B1B78052B37D8A0
:103F000001A252F823F000BF213F00002D3F000026
:103F1000393F0000453F0000513F00005D3F000079
:103F200040F28B111748FCF705FA27E040F28F1199
:103F30001448FCF7FFF921E040F293111148FCF717
:103F4000F9F91BE040F297110E48FCF7F3F915E080
:103F500040F29B110B48FCF7EDF90FE0022000F056
:103F6000FBF9082000F07CF9054B05221A7005E0EA
:103F700040F2A5110348FCF7DDF900BF00BF80BD8A
:103F8000B4000020B050000080B483B000AF0346FE
:103F9000FB7197F90730002B0BDBFB7903F01F0255
:103FA000074997F907305B09012000FA02F241F84E
:103FB000232000BF0C37BD465DF8047B704700BF6F
:103FC00000E100E080B586B000AF786039607B68C2
:103FD000524A934207D101215148FCF75BFC002172
:103FE000786800F0FFF87B6801225A6000BF7B68A8
:103FF0005B6B002BFBD17B689B6803F00103002BFC
:1040000003D150214748FCF795F97B6802225A609A
:104010000023FB720123BB723B681B787B723B68F9
:104020005B783B7200233B7300237B7300233B745C
:104030000323BB730323FB7307F108031946786856
:10404000FFF71AF800BF7B685B6B002BFBD13B6866
:10405000D3ED027A9FED347A67EE877AFCEEE77A49
:1040600017EE902A7B681A617B681A697B68DA60B0
:104070003B68D3ED037A9FED2C7A67EE877AFCEEEE
:10408000E77A17EE902A7B685A617B6801229A6171
:104090007B680122DA613B689B781A467B685A6428
:1040A0003B681B791A467B681A643B681B7C1A467E
:1040B0003B681B7E5B001A433B6893F820309B00F3
:1040C0001A437B689A623B681B7C1A463B681B7EDE
:1040D0005B001A433B6893F820309B001A437B68CF
:1040E000DA623B685B69114A13603B68DB69104A1E
:1040F00013603B685B6A0F4A13601B20FFF744FFA5
:104100007B689B6803F00103002B03D001217868D2
:1041100000F068F800BF1837BD4680BD006004405D
:1041200080061600CC50000000007A44CC0000202D
:10413000D0000020D400002080B582B000AF244B16
:104140001A6A234BDB6A13407B60214A7B689362C7
:104150007B6803F00403002B0ED01D4B1B6A03F099
:104160000403002B03D09D211A48FCF7E3F81A4BF7
:104170001B68184600F074F87B6803F00103002BFD
:104180000ED0134B1B6A03F00103002B03D0A121B7
:104190001048FCF7CFF8114B1B68184600F060F888
:1041A0007B6803F00203002B0ED0094B1B6A03F05F
:1041B0000203002B03D0A5210648FCF7BBF8084BEF
:1041C0001B68184600F04CF800BF0837BD4680BD9C
:1041D00000600440CC500000D4000020CC0000203F
:1041E000D000002080B582B000AF78600B46FB7035
:1041F000FB7819467868FEF71FFF00BF7B685B6B92
:10420000002BFBD1FB78002B08D07B689B6803F068
:104210000103002B02D1042000F082F8FB7883F028
:104220000103DBB2002B08D0064B9B6803F00103AF
:10423000002B02D0042000F08FF800BF0837BD46E5
:1042400080BD00BF0060044080B400AF034B00227B
:104250001A6000BFBD465DF8047B7047D80000209F
:1042600080B483B000AF786072B6064B1A687B6882
:104270001343044A136062B600BF0C37BD465DF8B5
:10428000047B7047D800002080B483B000AF786012
:1042900072B67B68DA43064B1B681340044A13600E
:1042A00062B600BF0C37BD465DF8047B704700BFA7
:1042B000D800002080B400AF034B1B681846BD46F1
:1042C0005DF8047B704700BFD800002080B400AFC9
:1042D000054B1B69044A23F00403136130BF00BF80
:1042E000BD465DF8047B704700ED00E080B483B00C
:1042F00000AF00237B6007E0084A7B68002142F89A
:1043000023107B6801337B607B68042BF4DD00BFE6
:104310000C37BD465DF8047B704700BFDC00002011
:1043200080B582B000AF7860094A7B68012142F80D
:104330002310074A7B6852F82330092B03DD5C21E8
:104340000448FBF7F7FF00BF0837BD4680BD00BF3C
:10435000DC000020EC50000080B582B000AF786037
:10436000094A7B68002142F82310074A7B6852F80B
:104370002330002B03DA70210448FBF7DBFF00BF7A
:104380000837BD4680BD00BFDC000020EC500000B7
:1043900080B500AF0F4B1B68002B17DC0D4B5B6823
:1043A000002B15DC0B4B9B68002B02DDFFF78EFF0B
:1043B0000FE0084BDB68002B03DD0120FDF708FC54
:1043C00007E00120FDF72AFC00BF02E000BF00E08B
:1043D00000BF80BDDC00002080B400AF044BDB6C6C
:1043E0001B0EDBB21846BD465DF8047B704700BF6C
:1043F000B081E00F80B582B000AF164B01225A6445
:10440000FFF7EAFF0346FB71FB79002B0CD1124B3F
:104410004AF6E8521A60114B1B68104A43F0040335
:1044200013600D4B00221A60FB79012B05D80C4B51
:104430001B680B4A43F4005313600A4B1B6A23F4B6
:104440004413084A43F48813136200BF0837BD467B
:1044500080BD00BF00000E4090310E4098310E40EC
:1044600064310E4000400E40B0B58AB000AF324B10
:1044700007F118040FCB84E80F00304B3C1D1D469C
:104480000FCD0FC42B682380FFF7B4FF00233B70D0
:1044900000237B7007F118031846FDF73BFF02234A
:1044A0007B703B461846FDF775FC3B1D1846FCF734
:1044B0002FFF2348FCF76CFE012201210320FCF7AB
:1044C000A9FF05211120FCF741FC00220021022058
:1044D000FCF7A0FFFEF7C8FF01211A48FFF782FE94
:1044E000FFF7E8FE0346002B01D1FFF751FFFFF76E
:1044F000E1FE034603F00403002B01D0FEF7FAFFB0
:10450000FFF7D8FE034603F00103002B01D0FFF7AD
:1045100007F8FFF7CFFE034603F00203002B01D09C
:10452000FFF70CF8FFF7C6FE034603F00803002B65
:10453000D6D0FFF711F8D3E7145100002451000042
:1045400080BA8C010060044081F0004102E000BFAD
:1045500083F0004330B54FEA41044FEA430594EA43
:10456000050F08BF90EA020F1FBF54EA000C55EA7E
:10457000020C7FEA645C7FEA655C00F0E2804FEA4F
:104580005454D4EB5555B8BF6D420CDD2C4480EA31
:10459000020281EA030382EA000083EA010180EA61
:1045A000020281EA0303362D88BF30BD11F0004FAF
:1045B0004FEA01314FF4801C4CEA113102D04042E5
:1045C00061EB410113F0004F4FEA03334CEA133320
:1045D00002D0524263EB430394EA050F00F0A78038
:1045E000A4F10104D5F1200E0DDB02FA0EFC22FA33
:1045F00005F2801841F1000103FA0EF2801843FA27
:1046000005F359410EE0A5F120050EF1200E012A17
:1046100003FA0EFC28BF4CF0020C43FA05F3C01855
:1046200051EBE37101F0004507D54FF0000EDCF1CE
:10463000000C7EEB00006EEB0101B1F5801F1BD377
:10464000B1F5001F0CD349085FEA30004FEA3C0C7B
:1046500004F101044FEA445212F5800F80F09A8071
:10466000BCF1004F08BF5FEA500C50F1000041EB75
:10467000045141EA050130BD5FEA4C0C404141EB79
:10468000010111F4801FA4F10104E9D191F0000FA0
:1046900004BF01460020B1FA81F308BF2033A3F123
:1046A0000B03B3F120020CDA0C3208DD02F1140C1A
:1046B000C2F10C0201FA0CF021FA02F10CE002F155
:1046C0001402D8BFC2F1200C01FA02F120FA0CFC4E
:1046D000DCBF41EA0C019040E41AA2BF01EB045197
:1046E000294330BD6FEA04041F3C1CDA0C340EDC95
:1046F00004F11404C4F1200220FA04F001FA02F3D8
:1047000040EA030021FA04F345EA030130BDC4F195
:104710000C04C4F1200220FA02F001FA04F340EA8A
:104720000300294630BD21FA04F0294630BD94F03B
:10473000000F83F4801306BF81F480110134013D22
:104740004EE77FEA645C18BF7FEA655C29D094EA93
:10475000050F08BF90EA020F05D054EA000C04BF11
:104760001946104630BD91EA030F1EBF00210020FC
:1047700030BD5FEA545C05D14000494128BF41F09B
:10478000004130BD14F580043CBF01F5801130BDFF
:1047900001F0004545F0FE4141F470014FF000008A
:1047A00030BD7FEA645C1ABF194610467FEA655C3B
:1047B0001CBF0B46024650EA013406BF52EA0335DD
:1047C00091EA030F41F4002130BD00BF90F0000FCB
:1047D00004BF0021704730B54FF4806404F1320407
:1047E0004FF000054FF0000150E700BF90F0000FC0
:1047F00004BF0021704730B54FF4806404F13204E7
:1048000010F0004548BF40424FF000013EE700BFB6
:1048100042004FEAE2014FEA31014FEA02701FBF46
:1048200012F07F4393F07F4F81F06051704732F078
:104830007F4208BF704793F07F4F04BF41F40021CF
:10484000704730B54FF4607401F0004521F000412D
:104850001CE700BF50EA010208BF704730B54FF0B7
:1048600000050AE050EA010208BF704730B511F0B8
:10487000004502D5404261EB41014FF4806404F1F0
:1048800032045FEA915C3FF4D8AE4FF003025FEA76
:10489000DC0C18BF03325FEADC0C18BF033202EBFA
:1048A000DC02C2F1200300FA03FC20FA02F001FA54
:1048B00003FE40EA0E0021FA02F11444BDE600BFF7
:1048C00070B54FF0FF0C4CF4E06C1CEA11541DBFA6
:1048D0001CEA135594EA0C0F95EA0C0F00F0DEF871
:1048E0002C4481EA030621EA4C5123EA4C5350EA56
:1048F000013518BF52EA033541F4801143F48013A7
:1049000038D0A0FB02CE4FF00005E1FB02E506F037
:104910000042E0FB03E54FF00006E1FB03569CF08C
:10492000000F18BF4EF0010EA4F1FF04B6F5007F92
:1049300064F5407404D25FEA4E0E6D4146EB060604
:1049400042EAC62141EA55514FEAC52040EA5E508D
:104950004FEACE2EB4F1FD0C88BFBCF5E06F1ED837
:10496000BEF1004F08BF5FEA500E50F1000041EB6E
:10497000045170BD06F0004646EA010140EA02001B
:1049800081EA0301B4EB5C04C2BFD4EB0C0541EA3D
:10499000045170BD41F480114FF0000E013C00F352
:1049A000AB8014F1360FDEBF002001F0004170BD76
:1049B000C4F10004203C35DA0C341BDC04F114048F
:1049C000C4F1200500FA05F320FA04F001FA05F21B
:1049D00040EA020001F0004221F0004110EBD370E8
:1049E00021FA04F642EB06015EEA430E08BF20EA14
:1049F000D37070BDC4F10C04C4F1200500FA04F3B7
:104A000020FA05F001FA04F240EA020001F0004148
:104A100010EBD37041F100015EEA430E08BF20EABB
:104A2000D37070BDC4F1200500FA05F24EEA020E03
:104A300020FA04F301FA05F243EA020321FA04F032
:104A400001F0004121FA04F220EA020000EBD370E9
:104A50005EEA430E08BF20EAD37070BD94F0000FE9
:104A60000FD101F00046400041EB010111F4801F1D
:104A700008BF013CF7D041EA060195F0000F18BFCE
:104A8000704703F00046520043EB030313F4801F0A
:104A900008BF013DF7D043EA0603704794EA0C0FC4
:104AA0000CEA135518BF95EA0C0F0CD050EA4106DA
:104AB00018BF52EA4306D1D181EA030101F0004157
:104AC0004FF0000070BD50EA410606BF104619467F
:104AD00052EA430619D094EA0C0F02D150EA01368B
:104AE00013D195EA0C0F05D152EA03361CBF1046CC
:104AF00019460AD181EA030101F0004141F0FE416B
:104B000041F470014FF0000070BD41F0FE4141F4EE
:104B1000780170BD70B54FF0FF0C4CF4E06C1CEAEE
:104B200011541DBF1CEA135594EA0C0F95EA0C0FA3
:104B300000F0A7F8A4EB050481EA030E52EA03355E
:104B40004FEA013100F088804FEA03334FF080557F
:104B500045EA131343EA12634FEA022245EA1115AC
:104B600045EA10654FEA00260EF000419D4208BF5D
:104B7000964244F1FD0404F5407402D25B084FEA0A
:104B80003202B61A65EB03055B084FEA32024FF4B6
:104B900080104FF4002CB6EB020E75EB030E22BF13
:104BA000B61A754640EA0C005B084FEA3202B6EBD3
:104BB000020E75EB030E22BFB61A754640EA5C0082
:104BC0005B084FEA3202B6EB020E75EB030E22BF12
:104BD000B61A754640EA9C005B084FEA3202B6EB13
:104BE000020E75EB030E22BFB61A754640EADC00D2
:104BF00055EA060E18D04FEA051545EA16754FEA34
:104C000006164FEAC30343EA52734FEAC2025FEA51
:104C10001C1CC0D111F4801F0BD141EA00014FF0E0
:104C200000004FF0004CB6E711F4801F04BF0143B1
:104C30000020B4F1FD0C88BFBCF5E06F3FF6AFAECD
:104C4000B5EB030C04BFB6EB020C5FEA500C50F15D
:104C5000000041EB045170BD0EF0004E4EEA1131E0
:104C600014EB5C04C2BFD4EB0C0541EA045170BDE7
:104C700041F480114FF0000E013C90E645EA060E2B
:104C80008DE60CEA135594EA0C0F08BF95EA0C0F59
:104C90003FF43BAF94EA0C0F0AD150EA01347FF4A1
:104CA00034AF95EA0C0F7FF425AF104619462CE778
:104CB00095EA0C0F06D152EA03353FF4FDAE1046DB
:104CC000194622E750EA410618BF52EA43067FF42C
:104CD000C5AE50EA41047FF40DAF52EA43057FF4BC
:104CE000EBAE12E74FEA4102B2F1E04324BFB3F565
:104CF000001CDCF1FE5C0DD901F0004C4FEAC00253
:104D00004CEA5070B2F1004F40EB830008BF20F036
:104D10000100704711F0804F21D113F13872BCBFF0
:104D200001F00040704741F480114FEA5252C2F145
:104D30001802C2F1200C10FA0CF320FA02F018BF8E
:104D400040F001004FEAC1234FEAD32303FA0CFCE1
:104D500040EA0C0023FA02F34FEA4303CCE77FEA70
:104D6000625307D150EA01331EBF4FF0FE4040F4BA
:104D70004000704701F0004040F0FE4040F4000069
:104D8000704700BF08B5074B044613B10021AFF3CD
:104D90000080054B1868836A03B19847204600F0ED
:104DA00031F800BF000000003851000070B50D4E12
:104DB0000D4CA41BA4100025A54209D10B4E0C4C90
:104DC00000F022F8A41BA4100025A54205D170BD57
:104DD00056F8253098470135EEE756F825309847C4
:104DE0000135F2E7740000207400002074000020F8
:104DF0007800002002440346934200D1704703F834
:104E0000011BF9E7FEE700BFF8B500BFF8BC08BC1E
:104E10009E467047F8B500BFF8BC08BC9E46704778
:104E20002F4170706C69636174696F6E732F536981
:104E30006D706C69636974792053747564696F2E41
:104E40006170702F436F6E74656E74732F45636C61
:104E5000697073652F646576656C6F7065722F730A
:104E6000646B732F6765636B6F5F73646B5F7375E0
:104E70006974652F76322E352F2F706C6174666FD2
:104E8000726D2F656D6C69622F696E632F656D5F42
:104E9000636D752E680000002E2E2F656D6C6962A3
:104EA0002F656D5F636D752E6300000040787D0196
:104EB00000000000005A620200010000C0CF6A003A
:104EC00002000000809FD50002010000002D31018A
:104ED000020200002E2E2F656D6C69622F656D5FDA
:104EE000656D752E630000002F4170706C69636101
:104EF00074696F6E732F53696D706C69636974792F
:104F00002053747564696F2E6170702F436F6E74D7
:104F1000656E74732F45636C697073652F64657675
:104F2000656C6F7065722F73646B732F6765636B4D
:104F30006F5F73646B5F73756974652F76322E359E
:104F40002F2F706C6174666F726D2F656D6C696266
:104F50002F696E632F656D5F6770696F2E68000043
:104F60002E2E2F656D6C69622F656D5F6770696F9E
:104F70002E630000080911082E2E2F656D6C6962E2
:104F80002F656D5F6932632E630000002E2E2F6542
:104F90006D6C69622F656D5F6C6574696D65722EED
:104FA000630000002F4170706C69636174696F6EFB
:104FB000732F53696D706C696369747920537475CC
:104FC00064696F2E6170702F436F6E74656E7473B9
:104FD0002F45636C697073652F646576656C6F70BF
:104FE00065722F73646B732F6765636B6F5F736498
:104FF0006B5F73756974652F76322E352F2F706C49
:105000006174666F726D2F656D6C69622F696E6376
:105010002F656D5F6770696F2E6800002E2E2F73ED
:1050200072632F536F757263655F66696C65732F6A
:105030006170702E630000002F4170706C696361B5
:1050400074696F6E732F53696D706C6963697479DD
:105050002053747564696F2E6170702F436F6E7486
:10506000656E74732F45636C697073652F64657624
:10507000656C6F7065722F73646B732F6765636BFC
:105080006F5F73646B5F73756974652F76322E354D
:105090002F2F706C6174666F726D2F656D6C696215
:1050A0002F696E632F656D5F6770696F2E680000F2
:1050B0002E2E2F7372632F536F757263655F66694F
:1050C0006C65732F6932632E630000002E2E2F73E0
:1050D00072632F536F757263655F66696C65732FBA
:1050E0006C6574696D65722E630000002E2E2F733F
:1050F00072632F536F757263655F66696C65732F9A
:10510000736C6565705F726F7574696E65732E631D
:10511000000000000002080705000A00C8000000A7
:10512000FFFF010001000000A00068010A2007063F
:10513000020A040700000000140000200000000024
:085140000CB0FF7F010000002C
:10514800005A620200800000C0EA2101C0EA210181
:10515800C0EA21010000000000000000000000007B
:105168000000000000000000000000000000000037
:105178000000000000000000000000000000000027
:105188000000000000000000000000000000000017
:105198000000000000000000000000000000000007
:1051A80000000000000000000000000000000000F7
:0C51B80000000000310100000D010000AB
:04000003000001C137
:00000001FF
