S010000044575F43425F4C61622E733337F7
S113000000000420C1010000ED010000ED0100002A
S1130010ED010000ED010000ED010000ED01000024
S1130020ED010000ED010000ED010000ED01000014
S1130030ED010000ED010000ED010000ED01000004
S1130040ED010000ED010000ED010000ED010000F4
S1130050ED010000ED010000ED010000ED010000E4
S1130060ED010000ED010000ED010000ED010000D4
S1130070ED010000ED010000ED010000ED010000C4
S1130080ED010000652F0000ED010000ED0100000E
S1130090ED010000ED010000A1330000ED010000BE
S11300A0ED010000ED010000ED0100006D300000E5
S11300B0ED010000ED010000ED010000ED01000084
S11300C0ED010000ED010000ED010000ED01000074
S11300D0ED010000ED010000ED010000ED01000064
S11300E0ED010000ED010000E92F0000ED0100002A
S11300F0ED010000ED010000ED010000ED01000044
S1130100ED010000ED010000ED01000010B5054C0B
S1130110237833B9044B13B10448AFF300800123AF
S1130120237010BDEC01002000000000986700005F
S113013008B5034B1BB103490348AFF3008008BD66
S113014000000000F001002098670000154B002B10
S113015008BF134B9D46A3F5803A00218B460F46FA
S11301601348144A121A03F027FF0F4B002B00D038
S113017098470E4B002B00D0984700200021040024
S11301800D000D48002802D00C48AFF3008003F0A6
S1130190EFFE2000290003F007FA03F0D5FE00BFAC
S11301A0000008000000042000000000000000001F
S11301B0EC010020240400200000000000000000E6
S11301C0064880470649074A074B9A42BEBF51F882
S11301D0040B42F8040BF8E7FFF7B8FF79020000BC
S11301E0A467000000000020EC010020FEE700BF2F
S11301F000487047005A62020F4BD3F8943003F062
S11302000703032B14D0042B0FD0022B0AD00B4B63
S11302101868094BD3F80031C3F304230133B0FB4E
S1130220F3F07047064B1868F3E7064B1868F0E7DD
S11302304FF40040EDE700BF00400E4008000020EE
S1130240040000200C00002008B5FFF7D5FF054B83
S1130250054AD3F80831C3F308230133B0FBF3F0A4
S1130260106008BD00400E4000000020014B1868DB
S1130270704700BF04000020044B054A9A60D3F87D
S1130280882042F47002C3F88820704700ED00E033
S1130290000000004FF40040704700BF4FF47A7034
S11302A0704700BF014B1868704700BF0C00002066
S11302B0FEE700BF224B98423AD01AD9214B98420C
S11302C03AD00CD8204B984225D003F5371303F5C8
S11302D0D86398422AD11D4BD3F8A00070471C4B19
S11302E0984214D01B4B984220D1184BD3F8B0003D
S11302F07047194B984215D011D9184B984211D018
S1130300174B984212D1114BD3F88C0070470F4B06
S1130310D3F8AC0070470D4BD3F89C007047114BD9
S1130320984203D1094BD3F88000704700207047EE
S1130330064BD3F898007047044BD3F8A8007047D5
S1130340405DC60080BA8C010024F400B081E00F47
S11303500048E80180D5430280841E0000093D0066
S1130360C0CF6A0040420F0010B5144B144A5B68BA
S11303700024C9B28C42234608D00133052B02F174
S1130380080213D012F8084C8C42F6D152F80C4CE7
S11303908442F2D30B4A02EBC3035B791A06074982
S11303A04B6823F0407313434B6010BD40F6D831C3
S11303B00548FFF77DFF4FF04072F0E700000E4064
S11303C0FC620000F0620000DC62000038B5074CFB
S11303D041F67133256C2364FFF70AFF0021FFF710
S11303E0C3FF0DB10023236438BD00BF00000E40DD
S11303F038B5054C41F67133256C2364FFF7B4FF1F
S11304000DB10023236438BD00000E40C0F3032364
S1130410013B30B4092B43D8DFE803F00D15424209
S11304202F3D1D423705214CC0F304302044800089
S113043030BC016070471E4CC0F30430204480007F
S113044030BC016070471B4CC0F304302044800072
S113045030BC01607047184CC0F304301025174BB2
S1130460D3F84421D207E1D4D3F840212A42FBD166
S11304702044800030BC01607047114CC0F304304C
S11304802044800030BC01607047C0F304300D4C40
S11304904FF48035E3E7C0F304300B4C0125DEE76D
S11304A041F23C11094830BCFFF702BF800AF21048
S11304B00000F2100006F2104007F21000400E4057
S11304C08005F2108007F2100007F210DC620000D1
S11304D000F00F00013808B507284AD8DFE800F01B
S11304E0121F2D49394149042F4BD3F85C3103F0D5
S11304F03003202B4AD0302B52D0102B0CBF0720B6
S1130500012008BD284BD3F8943003F00703023BC5
S1130510052B43D8DFE803F03A383640423E224BFD
S1130520D3F8800000F007000228EAD0042827D07E
S113053001280CBF0320012008BD1B4BD3F88430D5
S113054003F00703013B032B2CD8DFE803F01D1B4A
S11305502119154BD3F8880000F007000228E5D1D3
S113056008BD114B1B6F13F0010F14BF09200720A6
S113057008BD41F276610D48FFF79AFE002008BDE0
S11305800A2008BD022008BD032008BD042008BDC0
S1130590062008BD0C2008BD0B2008BD052008BDA1
S11305A0082008BD012008BD00400E40DC620000A8
S11305B038B52E4B984205460AD02D4B984207D0A9
S11305C02C4B984204D040F6C9412B48FFF770FEEB
S11305D02846FFF77DFF254B9D42044625D0244B3A
S11305E09D421CD0234B9D4213D040F6F841224833
S11305F0FFF75EFE042C04D8DFE804F009332F2152
S11306001D0040F64A511C48FFF752FE00242046C4
S113061038BD1A4BD3F8804004F00704EAE7174BBF
S1130620D3F8884004F00704E4E7144BD3F884407B
S113063004F00704DEE7BDE83840FFF72FBEFFF7FC
S113064003FE0E4BD3F80041C4F30064631C012481
S11306509C40B0FBF4F4204638BDBDE83840FFF7B9
S113066021BEBDE83840FFF715BE00BF03002000DF
S11306700500240002001E00DC62000000400E4061
S113068000F47810B0F5A01F08B500F09C801AD9CA
S1130690B0F5001F37D058D9B0F5381F38D06AD913
S11306A0B0F5401F6FD0B0F5481F19D16648FFF769
S11306B00FFF0138072800F2C080DFE800F0AEBE6B
S11306C0BEBABEBE43B0B0F5202F18D00FD9B0F5D6
S11306D0602F32D0B0F5801F34D0B0F5402F21D038
S11306E041F262215948FFF7E3FD002008BDB0F54F
S11306F0003F7DD0B0F5802F6FD00028F0D1BDE849
S11307000840FFF779BD5248BDE80840FFF750BFE5
S11307105048FFF74DFF504BD3F82031C3F301137A
S1130720D84008BDFFF768FD4B4BD3F81431C3F331
S113073004230133B0FBF3F008BD4848FFF7C8FEBB
S1130740072860D1464B186808BDB0F5D01F2DD0DE
S1130750B0F5F01F25D0B0F5B01FC1D13D48FFF76B
S113076027FF3D4BD3F82021012302F00F029340D1
S1130770B0FBF3F008BDB0F5101FB1D13948BDE8A6
S11307800840FFF715BF3248FFF712FF324BD3F88A
S11307902831C3F301231A1D01239340B0FBF3F066
S11307A008BD2C48BDE80840FFF702BF2848FFF702
S11307B0FFFE294BD3F828210123C2F301129340F1
S11307C0B0FBF3F008BD2748FFF7F2FE224BD3F845
S11307D0303103F00303D84008BDFFF70DFD1E4B75
S11307E0D3F80C31C3F308230133B0FBF3F008BD95
S11307F0FFF702FD184BD3F80831C3F30823013384
S1130800B0FBF3F008BD09283FF479AF40F69A2114
S11308100E48FFF74DFD002008BD002008BDFFF77E
S1130820EBFC0D4BD3F80031C3F3042303FB0000AE
S113083008BDBDE80840FFF719BD40F6D1210348C3
S1130840FFF736FD002008BDB8003200DC6200006E
S11308500300200002001E0000400E4006000E00AF
S113086010000020050024002DE9F0470546FFF79D
S113087021FD431E0333064672D8DFF8C0811120E0
S1130880D8F80070C8F80050FFF722FE052800F0E1
S113089082805E4B1C68002CFCD1731C75D05C4BB1
S11308A09D426DD05B4B9D4260D05B4B9D4220D0FE
S11308B01120FFF70DFE052824D1584B9D425CD929
S11308C0574901208D428CBF4FF000714FF0807169
S11308D0544B554A1860D2F8003123F080730B430F
S11308E0BD42C2F800310FD90121284600F0ECFDC9
S11308F00AE026F0C06646F080661120FFF7E8FDA6
S113090005283AD0BD42EFD8474B11201E61FFF7AE
S1130910DFFD052842D04548FFF7B2FE3F4B984221
S11309201CD93F4B012498428CBF4FF000734FF009
S113093080733C493C4A0C60D2F8000120F080707E
S11309401843BD42C2F8000103D80121002000F081
S1130950BBFD1120BDE8F047FFF7BABD0023E8E76F
S113096041F6FF213248FFF7A3FC86E71120FFF789
S1130970AFFD052826F0C066C4D100200146A7E7D4
S113098026F0C06646F00076B7E741F610312848F5
S1130990FFF78EFC83E7FFF719FD7AE7FFF754FCB6
S11309A0854281462CD3D8F800304B4520D39D4254
S11309B018D1204B1E68002EFCD11F4BDFF880801D
S11309C05968D8F840A041F671334846C1F3014153
S11309D0C8F84030FFF7C8FCBAF1000F9BD0C8F844
S11309E0406098E741F63E311148FFF761FCE0E7CB
S11309F041F63D310E48FFF75BFCD8F80030D6E7EE
S1130A0041F63C310A48FFF753FCCCE76028C84361
S1130A1080841E0000093D0040420F000048E801A8
S1130A200090D0034000C84300400E4000250A0057
S1130A30DC620000C800C64300300E4008000020FD
S1130A4000000E40013810B50C4603284ED8DFE8EC
S1130A5000F0203211027F2961D8344A04F07F0467
S1130A601368002BFCD1324A936923F07F031C43A3
S1130A70946110BD7F294CD82E4A04F07F0413687A
S1130A80002BFCD12A4A136923F07F031C43146111
S1130A9010BDB1F5007F36D2274AC4F308041368A9
S1130AA0002BFCD1224A136A23F4FF7323F00103C1
S1130AB02343136210BD1E4BD3F890305B071CD444
S1130AC01B491E4B4A6A22F0300242F010024A626D
S1130AD0086BC4F3C312033203400F2A44EA03042D
S1130AE028BF0F2244EA02740C6310BD41F668610A
S1130AF01348BDE81040FFF7DBBB41F64E611048D8
S1130B00FFF7D6FBDCE741F617610D48FFF7D0FB92
S1130B10C2E741F624610A48FFF7CAFBACE741F695
S1130B203F610748FFF7C4FB97E700BF6428C84349
S1130B3000400E406028C8436828C84300F8FF0FEF
S1130B40DC620000022810B50C4604D04FF4F451C6
S1130B501348FFF7ADFB134B5B6A13F0300F0BD058
S1130B60202C19D0302C07D034B141F69B610C48AD
S1130B70FFF79EFB0C4A01E04FF440020949D1F80B
S1130B80903032EA0303FAD153024ABFD1F8A000ED
S1130B900120C0F3802010BD4FF40002EEE700BF37
S1130BA0DC62000000400E40FF33E107F0B504466C
S1130BB083B00E4604287FD8DFE800F003595F793C
S1130BC053004FF400754FF4807708234FF0090C5D
S1130BD096B9012098404A490D66D1F890300342F5
S1130BE0FBD13AB10122464902FA0CF2D1F8903015
S1130BF01342FBD103B0F0BD4249194489000026D9
S1130C003F4B1F660B68002BFCD0002AF2D03D4DF1
S1130C106544AD002B68002BFCD0022CEAD1002ED9
S1130C20E8D0374A516A11F0010165D04FF480636E
S1130C302021C2F8A83020465166FFF783FF304CCC
S1130C40D4F89C60012200210220FFF7AFFFC6F315
S1130C500A010220FFF7F6FE27662B68002BFCD062
S1130C60C8E72025102704234FF0050CB0E78025A2
S1130C70402706234FF0070CAAE7002937D0204B62
S1130C805B6A13F0300F1FD11F4BDB6B580526D561
S1130C901B4B596AC9071DD5586A1C4920F03000FE
S1130CA040F01000586204274FF0030CA8E7012716
S1130CB0BC46022500238BE7154841F6655103B075
S1130CC0BDE8F040FFF7F4BA104904274FF0030CD5
S1130CD0002695E70D4904274FF0030C90E741F6F1
S1130CE074510B480192FFF7E3FA019AD0E704200C
S1130CF008254FF0030C6EE72046FFF723FF9EE71D
S1130D0000400E408004F21000300E400812C84328
S1130D10DC6200001128F8B50C460AD000F00F0080
S1130D200138072863D8DFE800F0093F43621B2835
S1130D306231042900F0928005293BD00025023C51
S1130D400A2C00F22881DFE814F0F900FC00060107
S1130D5013012601260126012601FF00B400F70035
S1130D600629944D57D0013C092C47D8DFE804F0FC
S1130D703D362F4646584646462C072900F0158135
S1130D80092972D18C4B01221A67F8BD4C1E072C1D
S1130D9000F2FA80DFE814F08B00F800F800840019
S1130DA0F800F8007D00730006292ED0834DDAE7A1
S1130DB0834DD8E7834A844B15689D42BED90021F0
S1130DC0284600F081FBBAE704232B60F8BD01221A
S1130DD011461046FFF7EAFE0123F6E70122114609
S1130DE00020FFF7E3FE0223EFE70023EDE741F6DF
S1130DF06D117648BDE8F840FFF75ABA41F2AE717A
S1130E007248BDE8F840FFF753BA41F275716F4874
S1130E106A4DFFF74DFA6D4841F28971FFF748FAC0
S1130E20FFF712FA6A4B984226D96A4B012498427A
S1130E308CBF4FF000734FF0807367495E4A0C60BB
S1130E40D2F8000101F5AE51083120F0807018434A
S1130E500124C2F8000103230C60B6E7FFF706FA89
S1130E60054600283FF46AAFA9E741F63801574820
S1130E70BDE8F840FFF71CBA00231C46DDE730212B
S1130E804D4AD2F85C3123F030030B43C2F85C3195
S1130E90F8BD012211460420FFF788FE1021EFE778
S1130EA0012211460220FFF781FE2021E8E70021FC
S1130EB0E6E70320052401221146FFF777FEFFF73A
S1130EC085FA1DB1454A1368002BFCD13A4B4448BE
S1130ED05C67FFF7D5FB3E4B984263D93D4B012439
S1130EE098428CBF4FF000734FF080733A49324AF6
S1130EF00C60D2F8000120F080701843C2F80001A1
S1130F00FFF7A2F9354B1C68002CFCD1354B364E4B
S1130F105968376C41F67133C1F301413364FFF70B
S1130F2023FA07B13464002D7FF42FAF2846012142
S1130F30BDE8F84000F0C8BA0724C0E70020042444
S1130F40B9E701200324B6E741F234711F48BDE834
S1130F50F840FFF7ADB9204B174A01211960D2F8C8
S1130F600031022043F08073C2F800310446A2E746
S1130F70194B114A01241C60D2F8003143F08073EC
S1130F80C2F80031032096E741F696010F48BDE808
S1130F90F840FFF78DB941F239710C48BDE8F840CB
S1130FA0FFF786B900231C46A0E7034B00221A670B
S1130FB0F8BD00BF88400E4000400E4080400E4007
S1130FC084400E4008000020002D3101DC62000046
S1130FD00048E8010090D0034000C843C800C6435D
S1130FE000250A0000300E4000000E4038B50446CB
S1130FF01120FFF76DFA04284DD0012200210220B0
S1131000FFF7D4FD637813B9A378002B36D041F6EB
S11310105B412448FFF74CF9217C012934D0224A52
S11310202248536A257823F00103022908BF43F0BC
S1131030010353620560A388617AE58841EAC3210C
S1131040D162136B207AA17A03F07F630B43C11C36
S113105043EAC5230F2943EAC01328BF0F2143EAFB
S113106001731363A37B657BE07B217B1B0143EA54
S11310700533034343EA0143536338BDE378002B4C
S1131080C5D1217C0129CAD14FF4E3510548FFF7AA
S11310900FF9217CC3E741F61D410248FFF708F927
S11310A0ABE700BFDC62000000400E40A004C84370
S11310B038B542EA032340F20112934205460C4636
S11310C060D0B3F5817F14D340F20122934250D013
S11310D030D9B3F5407F24D040F2013293423ED15F
S11310E02D4BD3F878311A0EC3F307432B602260DB
S11310F038BD012B2AD00BD3B3F5807F2FD1264BDB
S1131100D3F86C311A0EC3F307432B60226038BD49
S1131110214BD3F86C31C3F30722DBB22B6022607E
S113112038BD1D4BD3F870311A0EC3F307432B603F
S1131130226038BDB3F5007F11D1174BD3F870315D
S1131140C3F30722DBB22B60226038BD124BD3F805
S11311507431C3F30722DBB22B60226038BD40F246
S1131160D3710E48FFF7A4F8002213462B602260C7
S113117038BD094BD3F87831C3F30722DBB22B60B7
S1131180226038BD044BD3F874311A0EC3F30743FD
S11311902B60226038BD00BFB081E00F18630000EF
S11311A0094A1368002BFCD1084B19685A68C1F32B
S11311B00121C2F3014291421A688CBF42F010022D
S11311C022F010021A607047C800C64300300E4077
S11311D0044B1B69C3F30443082B02D1024B034A9B
S11311E01A60704700400E4008000020C0EA210148
S11311F070B5274B274C1978274B284D284AC1F145
S1131200020010218140216145F60E01D3F880418E
S1131210C3F88011286840F25511014004F001041C
S113122019661368002BFCD11A4B1B68D80617D516
S1131230194AD2F84031D901FBD41A4E1A4B3178ED
S11312401B681361052916D01120FFF763FD2B6875
S1131250DB070CD51CB1104B0022C3F8802170BDF4
S1131260104E31780529EFD12B68DB07F2D40A4BF5
S113127002221A66EEE70D4B094A18681368002B20
S1131280FCD1044B5968C1F30141FFF7B1F8E8E719
S11312901902002000300E4000400E4008020020D9
S11312A0C800C643120200201402002008000020D7
S11312B01C4B022810B5D3F880310C4620D00328EB
S11312C01CD0012814BFDBB2C3F307231B0323F490
S11312D0704244B9BAB91449CA6E22F47042134335
S11312E0CB66012010BDAAB90F49D1F8EC2022F435
S11312F070421343C1F8EC30012010BD1B0EE5E72A
S1131300C3F30743E2E740F262710848FEF7D0FFF7
S1131310204610BD40F26E710448FEF7C9FF00205C
S113132010BD00BFB081E00F00300E401863000014
S11313300C4A08B50C4BD2F890201A601120FFF724
S1131340C7F80A4B0A4A18701368002BFCD1094BE2
S113135009485B680349094AC3F3014303700B69F5
S1131360136008BD00400E40080200201202002055
S1131370C800C64300300E401902002014020020A9
S113138010B50446B0B9FFF70BFF0E4A136943F0DA
S11313900403136130BF84B90B4B1B68DB0603D411
S11313A0BDE81040FEF750BFFFF712FFBDE8104044
S11313B0FEF74ABFFFF7BCFFE5E7BDE81040FFF7C3
S11313C017BF00BF00ED00E000300E4010B504462A
S11313D018BBFFF7E5FE144BD3F88021D20748BFB2
S11313E0002245F60E01C3F8801148BFC3F88021DE
S11313F00E4A136943F00403136130BF84B90C4BE4
S11314001B68DB0603D4BDE81040FEF71DBFFFF7E1
S1131410DFFEBDE81040FEF717BFFFF789FFD8E7EE
S1131420BDE81040FFF7E4BE00400E4000ED00E0D0
S113143000300E401F4B2DE9F04104460E46D3F810
S11314400051FEF7D9FE1C4A07461368002BFCD155
S11314501A4A5368C3F301439C4229D0C4F10208D9
S11314601023022C03FA08F80DD0C2F810801EB124
S1131470114A1368002BFCD1D4B921463846BDE883
S1131480F041FEF7B5BFC5F304250D4B05FB077509
S11314909D4204D940F2B3410A48FEF709FF0221F4
S11314A03846FEF7A5FF054BC3F81080002EDFD1A8
S11314B0BDE8F08100400E40C800C64300300E4035
S11314C0002D31011863000010B5104B82B0D3F821
S11314D0004158B10E4B1B7813B10E4B98420ED9F4
S11314E0002002B0BDE81040FFF7A4BF0191FEF751
S11314F083FEC4F3042404FB00000199EAE70220FC
S113150002B0BDE81040FFF795BF00BF00400E4099
S113151018020020FF2C3101094942780B6823F49A
S1131520407343EA0223022A0B6000D07047054B44
S11315305B6A9B00FAD540F2ED410348FEF7B8BE62
S113154000300E4000400E40186300001E4A936FA6
S1131550DB07FCD4136C13F003031CD01B4A0121DA
S1131560834211601CD0032B02D1431E012B18D9D6
S1131570154A936FD907FCD4136C134923F0030362
S1131580034313648B6FDB07FCD400300F4B18BF8D
S11315900120186070470028E7D10C4B1860704791
S11315A07047094A4FF40023D362936FD907FCD4E0
S11315B0136C054923F0030343F0010313644B6ADE
S11315C01B03FCD5D4E700BF00300E40B40AC64369
S11315D02DE9F04F044689B0A0F5E1600025B0F58F
S11315E0966F0191CDE90255CDE90455CDE9065533
S11315F000F284805D4BB4F5E16F9346D3F8683113
S11316008CBF4FF001084FF0000863D1C3F30722E9
S1131610DBB2079204934FF416794FF4966A544F51
S1131620FD6CC5F3017505A902A82B464246FFF7D8
S11316303FFDD7F8EC60C6F301264246334606A9BF
S113164003A8FFF735FD049A0798A4EB0A01831A4F
S113165001FB03F3B3FBF9F3D3182CBF01220022DF
S1131660984241D3002A3FD10698DDF80C80A0EBC4
S1131670080201FB02F2B2FBF9F218EB02082CBFDC
S11316800122002240452FD372BB059A0298A2EB97
S1131690000C01FB0CF1B1FBF9F910EB09092CBFAB
S11316A0012100214A451FD3F1B9BBF1000F0DD030
S11316B0FA6D22F4FE4222F0020242EA0323B4F558
S11316C0E16F2B4A18BF43F00203D365019BF3B9C2
S11316D001250FE01A0EC3F30743079204934FF456
S11316E096694FF4E16A9AE740F654112148FEF7EF
S11316F0DFFD0025284609B0BDE8F08F40F606114D
S11317001C48FEF7D5FD284609B0BDE8F08F2846F1
S11317100021FFF7CDFD0546E0B130460121FFF77A
S1131720C7FD0546E0B1124A536EC14538BFC146F4
S113173023F4FF73B9F1E70F23F0010328BF4FF03F
S1131740E709B4F5E16F18BF43F0010343EA490325
S11317505366CFE740F663110648FEF7A9FDC9E7D3
S113176040F66B110348FEF7A3FDC3E7B081E00F19
S113177000300E401863000038B53B4B1A6FD96C2B
S1131780CC0702F007020BD5012A55D9132850D9EA
S1131790143813288CBF4FF47F414FF4EE410CE012
S11317A0D96CCD073FD4012A53D9DB6C2F4840F6BE
S11317B0A911FEF77DFD6FF0FF012B482C4AC36C85
S11317C02C4C23F47F430B43C364C16C1388C26C59
S11317D0C1F303210131283301EB810503EB5303EA
S11317E0B3FBF5F3013B072B22F0EE6228BF07237E
S11317F042F4801242EA0363B4F90020C364002A6D
S113180010DB036D4C08283204EB410102EB520259
S113181023F07004B2FBF1F3072B28BF072344EA3B
S11318200313036538BDDB6CDC07BFD5012ABDD8C3
S113183008E04FF44C51C0E7DA6CD20709D5DB6CF1
S1131840DB07B3D527288CBF4FF47F414FF4EE411B
S1131850B3E70928EDD90A3809288CBF4FF47F4132
S11318604FF4EE41A9E700BF00300E4018630000BA
S11318700E020020100200200B4B1B6810B504461A
S113188033B9012804D940F6C8110848FEF710FD01
S1131890074B084A186F20F0070020431867BDE87B
S11318A010401088FFF768BF8009C6431863000022
S11318B000300E400C0200206B4B022270B59A637C
S11318C09B6B03F00F03934222D10389C82B044678
S11318D000F28680A2889A4200F28C80B4F90C301F
S11318E0C82B00F391806378012B6CD0022B00F09D
S11318F0B080E38842F21072934200F2A3804A2B34
S11319000ED9B3F5FA7F80F089804FF0805008E05B
S113191040F66D0155480025FEF7CAFC284670BD07
S113192000205149B4F90C60CB6C514D23F0405365
S113193023F00103002EA8BF43F001030343CB644B
S1131940D1F8EC3043F44073C1F8EC30CB6E43F083
S11319508073CB662868002831D1FFF78DFF454A94
S1131960454BA088454925891080B4F90C201A807C
S11319700D80FFF701FFA37B002B5FD0012B2BD041
S113198040F213713948FEF793FC01221146608836
S1131990FFF71EFE0546002849D0334A6078D36B12
S11319A043F48063D363FFF7D1FDA37A344AA3F1F0
S11319B02003B3FA83F35B091360284670BD042047
S11319C0FFF75AFFCBE7A388C82B92D940F67D01D5
S11319D02648FEF76DFC8CE7234B2A4A9A65D4E728
S11319E040F677012148FEF763FC2389A2889A42D6
S11319F07FF674AF40F678011C48FEF759FCB4F941
S1131A000C30C82B7FF76FAF40F679011748FEF70B
S1131A104FFC6378012B7FF469AFD4E740F6C31021
S1131A2083428CBF4FF040504FF0005079E740F6AE
S1131A30C1010E48FEF73CFC284670BD0A4B124A11
S1131A409A65A2E740F68A010848FEF731FCE3886C
S1131A5055E7A3880A2B7FF64CAF40F68201034872
S1131A60FEF726FC45E700BF00300E401863000077
S1131A708009C6430C020020100200200E02002040
S1131A809407C643372110B777402057032838B549
S1131A9004460D461BD9042805D0052817D0A0F10B
S1131AA00803022B13D983210B48FEF701FC04EB36
S1131AB04400000100F1804000F5204000F1806303
S1131AC000F1C0604FF001121A60056038BD35F0B6
S1131AD00113E8D1EBE700BF2C6300002DE9F041CE
S1131AE00D46174698460446E8B1012800F0B48034
S1131AF0022800F0F480032800F0EE80042800F0AF
S1131B00A580052800F02181831F012B40F29E80CF
S1131B10082800F02981092800F031810A2840F0C2
S1131B209580072301E040F2FF332B41DE0740F1AB
S1131B308D80002F3CD16600072D25D833191B0159
S1131B4003F1804303F52043A9005A680F2088401D
S1131B5022EA000207FA01F10A435A6097B9B8F180
S1131B60000F57D1002C7AD140F2FF332B41DB0711
S1131B7040F1B8808D4B344424012344012202FAFD
S1131B8005F51D60BDE8F0813119090101F18041BD
S1131B9001F5204105F1804008388B6880000F2250
S1131BA0824023EA020307FA00F018438860D5E76D
S1131BB0B8F1000F10D0002C68D140F2FF332B4154
S1131BC0D80740F195806600794B3219120113440D
S1131BD00122AA401A60AFE7002C6CD0012C00F05F
S1131BE0AB80022C00F0B480032C00F09680042C0F
S1131BF000F08480052C00F0B980A31F012B7DD94F
S1131C00082C00F0C380092C00F0C7800A2C75D181
S1131C10072352E0002C57D0012C00F09080022CB6
S1131C2000F09C80032C7ED0042C6DD0052C00F099
S1131C30A380A31F012B67D9082C00F0A580092CD1
S1131C4000F0AE800A2C5FD107233FE040F213116D
S1131C505848FEF72DFB6CE74FF6C07365E7012C7F
S1131C6064D0022C6ED0032C54D0042C3AD0052C12
S1131C7077D0A31F012B35D9082C00F08380092CC1
S1131C8000F088800A2C2DD107236FE7012C50D057
S1131C90022C60D0032C43D0042C29D0052C68D00E
S1131CA0A31F012B24D9082C72D0092C7BD00A2C19
S1131CB01ED1072383E740F2FF332B41D9071DD5FB
S1131CC066003219394B81E740F2FF332B41DA07C2
S1131CD01AD53444364B4FE74FF47F4325E740F69B
S1131CE0FF7322E740F2DD313348FEF7E1FA41E7C2
S1131CF040F20C413048FEF7DBFA64E740F2DD3194
S1131D002D48FEF7D5FADBE740F20C412A48FEF7EE
S1131D10CFFADEE74FF47F4328E74FF47F43CCE765
S1131D204FF47F434BE74FF47F43CFE74FF6C07345
S1131D301CE74FF6C07342E74FF6C073BDE74FF69A
S1131D40C073C3E740F6FF7310E74FF6FF73ECE68A
S1131D5040F6FF73B1E740F6FF7330E740F6FF73D8
S1131D60B4E74FF6FF7301E70F23DEE64FF6FF7388
S1131D70A3E74FF6FF7322E74FF6FF73A6E74FF48E
S1131D804043D2E60F23F1E60F239FE70F2394E7A6
S1131D900F2314E74FF44043E8E64FF440438CE745
S1131DA04FF4404392E74FF4404308E70CA000444B
S1131DB00CA000462C63000040630000002A54D0AD
S1131DC0F8B50F460168054603F0030621F4407197
S1131DD000F1C063144600F18062296030024FF4C0
S1131DE040711160186057B92F4B9D4256D02F4B4C
S1131DF09D4243D040F22F112D48FEF759FA2B682B
S1131E009A071ED5032E35D14FF4B2712848FEF738
S1131E104FFA284B9B5D04FB03F3FBB16FEAC40448
S1131E201C443C44B4FBF3F4013C2CD4B4F5007FD3
S1131E302ED22B689B0702D5002C08BF01242C61ED
S1131E40F8BD032EE0D01C4B53F826309F42DBD95B
S1131E50184B9B5D04FB03F3002BDFD140F275119B
S1131E601348BDE8F840FEF723BA40F215111048B4
S1131E70FEF71EBA114B53F82630E7E71048FEF779
S1131E80FFFB0746BBE740F27B110948FEF710FA57
S1131E904FF4BE710648FEF70BFACAE70948FEF78D
S1131EA0EFFB0746ABE700BF00C0004000C40040A2
S1131EB0D0630000E4630000C4630000B863000062
S1131EC0009204000082040038B5094B984204468D
S1131ED00D4608D003F58063984204D040F2951172
S1131EE00448FEF7E5F904F104746401256038BD83
S1131EF000C00040D0630000124B984270B5044605
S1131F000D4608D003F58063984204D04FF4D57190
S1131F100D48FEF7CDF969780C482B7B620102F17C
S1131F208442002681F001012664E0635160D5E912
S1131F3001122046FFF742FF29782046BDE8704091
S1131F40FFF7C2BF00C00040D0630000FFFF0700DE
S1131F5038B5084B984204460D4603D0EA2106489A
S1131F60FEF7A6F915B90223636038BD0123636047
S1131F7038BD00BF00600440E86300001D4B984278
S1131F8070B505460C4604D04FF4A5711A48FEF707
S1131F908FF9217821B9AB68DA0744BF02236B605B
S1131FA06278A078E368002A14BF4FF480520022BC
S1131FB0E0B9DBB9E3780BB142F4807223790BB159
S1131FC042F0400263790BB142F08002E379A679D2
S1131FD0207A1B0143EA8603034313432B6021B198
S1131FE0AB68DB075CBF01236B6070BD42F4007219
S1131FF02B61DFE700600440E863000070B505462C
S11320000C4616462AB36CB9184B9D4206D04FF4C1
S113201096711748BDE87040FEF74AB91548FEF7B7
S11320202FFB04466401144BB4FBF6F4203CE4009B
S11320309C4214D82B6C104AD90702EA040201D539
S1132040EA6070BD6B6C5B07FAD56B6C5B07F9D407
S1132050F6E74FF482710648FEF72AF9D3E740F217
S113206039110348FEF724F9E4E700BF00A0044057
S11320700064000090171A00F8FF010038B50C4BFB
S1132080984204460D4604D040F25D110948FEF71B
S11320900FF9E943236C490001F00A01DA0741EA28
S11320A0050102D4636C9B07FCD4616038BD00BF9A
S11320B000A0044000640000154B984270B504462B
S11320C00E4604D04FF4DF711248FEF7F1F8236C8A
S11320D0DA0702D4636C9B07FCD40A236360656C43
S11320E0002DFCD101232364707B337BB17B2268F8
S11320F0034322F01C020B4313432360D6E901126D
S11321002046FFF77BFF33786360256470BD00BF12
S113211000A00440006400000E4B984210B5044631
S113212004D04FF4F2710C48FEF7C2F8636C002B34
S1132130FCD10120EA2140F2F9722064616023603D
S1132140E36023616361A3636263E3636365A3651F
S1132150236410BD00A004400064000030B58BB0BF
S11321600D4B00930D4A0292012300218DF8143087
S11321708DF804308DF80C30089304910F2308482F
S113218002254FF470646A4601A90995CDE9063425
S113219000F056FE0BB030BD0A0B0202DDFB050059
S11321A000C0004000B583B0022300930448054BEF
S11321B0F322402100F0B6FE03B05DF804FB00BF3B
S11321C000C000401C02002008B5174B186807EE39
S11321D0900AF8EE677A17EE900A01F0FBFB0EA363
S11321E0D3E9002301F04EFC0DA3D3E9002301F051
S11321F091FA01F059FE07EE100AF2EE027A67EE48
S1132200277AF1EE046A87EEA67ADFED087A77EE94
S1132210277A17EE900A08BD619FC6DE07F7653F6F
S1132220CDCCCCCCCC6C47401C020020000000423A
S113223070B58AB000230122029003911C26042564
S1132240022469460B488DF800308DF801308DF872
S113225004308DF805308DF810308DF81830ADF855
S113226002608DF8202005920995079400F060FF24
S11322700AB070BD0060044008B500F099FA00F09F
S1132280BDFA09490948FFF7D3FF01F033F901F01A
S113229051F9FFF763FF102001F032F920214020AB
S11322A0BDE8084000F080B8CDCCCC3D6666464021
S11322B008B501F039F9430703D479210448FDF73F
S11322C0F7FF042001F026F9BDE80840FFF76ABFD4
S11322D04064000008B5012001F01CF98D2102487A
S11322E0BDE80840FDF7E4BF4064000008B50220E3
S11322F001F010F99F210248BDE80840FDF7D8BF5E
S11323004064000000B508208FB001F003F9FFF726
S11323105BFF9FED0D7A07EE900AF4EEC77AF1EEBB
S113232010FAACBF094B0A4B20221A6001F052FB91
S113233002460B4601A8074902F0A6FA01A800F0DC
S1132340E1F80FB05DF804FB0000A042FCA00046D9
S1132350FCA000445C64000008B5102001F0DAF829
S11323600121084800F0C6FE00F0D4F8064800F049
S1132370C9F8064800F0C6F80548BDE8084000F072
S1132380C1B800BF00600440186400002864000065
S11323903464000008B5402001F0BCF80020BDE81A
S11323A0084000F067B800BF30B58DB0CDE90A1021
S11323B04FF41652052112200024012300928DF8B7
S11323C005100222694605904FF490550D488DF88A
S11323D0243006938DF82530CDE907528DF804405A
S11323E08DF8064002948DF80C4000F027FF064B50
S11323F040213F22C3E91244596483F840200DB0C0
S113240030BD00BF00A00440D00300202DE9F041FE
S1132410164D044602F060FAD5E9121395F840709F
S11324206A6C591A3940521AD2B200F10108424575
S1132430064611DB05F8038001333B40EB644EB1E3
S1132440601E811910F8012FEA5401333B40814288
S1132450EB64F7D1BDE8F08140F2DD110448FDF7EB
S113246027FFEB6C95F84070E4E700BFD003002031
S11324706C640000F8B51F4CD4E9125294F8401073
S1132480636C521B0A409B1ADBB2402B23D00546D7
S1132490194801F029F8F0B9A36C94F84070E15C94
S11324A0013301F1FF3C3B40BCF1000FA3640BDDA1
S11324B0124A561E0E44E15C02F8011F0133B24277
S11324C003EA0703F7D1A3640D4CA44400238CF85A
S11324D0C03015B1F8BD0120F8BD04F1C00002F010
S11324E0FBF904F1C0010246034800F0DBFF284673
S11324F0F8BD00BFD003002000A004408F030020DB
S1132500D002002008B5FFF781FF0020BDE8084095
S1132510FFF7B0BF2DE9F84F9D4F9E4C0023C7E94C
S113252012332246012302F8013F0133332BFAD13F
S1132530994A002302F13F0882F832304646583265
S1132540142306F8013F0133B242DBB2F9D19249B8
S113255097F84420002381F8593081F885302323EB
S113256081F88030242381F88130252381F882305A
S1132570262381F88330402A4FF0270381F88430E2
S113258004D040F271118548FDF792FE8248FFF7AE
S11325903DFFD7E9122397F840109A1A7B6C0A4042
S11325A09B1ADBB20D2B04D040F279117B48FDF766
S11325B07FFE0120FFF75EFF002840F0E280DFF895
S11325C0ECA1DFF8D891AAF18E0B554614F8011F3F
S11325D015F8013F9942484640F2811101D0FDF7B8
S11325E067FEA345F2D16C4B93F8F230002B40F018
S11325F0C280D7E9122397F840109A1A7B6C0A40DC
S11326009B1ADBB2402B04D04FF4C4716348FDF72E
S11326104FFE6348FFF7FAFED7E9122397F84010FC
S11326209A1A7B6C0A409B1ADBB2262B04D04FF417
S1132630C6715A48FDF73CFE5A48FFF7E7FED7E952
S1132640120397F840107A6C1B1A1940521AD2B22E
S1132650202A07D051484FF4C871FDF729FED7E965
S113266012031B1A13F13F0F63DB3F2B61DC0120C4
S1132670FFF700FF002866D1484C18F8012F1AF81C
S1132680013F9A424FF4CC71204601D0FDF710FE71
S11326904645F2D1404B93F8D930002B65D1D7E9A8
S11326A0120297F840107B6C121A0A409B1ADBB294
S11326B03A2B04D040F29D113848FDF7F9FD012072
S11326C0FFF7D8FE00284AD1364C344E651D14F865
S11326D0013B94F83F209A424FF4D271304601D026
S11326E0FDF7E6FDA542F2D12B4B93F8C53083BB31
S11326F0D7E9120297F840107B6C121A0A409B1A11
S1132700DBB2402B04D040F2A9112448FDF7D0FDE0
S11327100120FFF7AFFE20B940F2B1111F48FDF7C9
S1132720C7FD2148FFF772FE0020BDE8F84FFFF710
S1132730A1BE1A4840F29111FDF7BAFD0120FFF73E
S113274099FE002898D04FF4CB711448FDF7B0FDE2
S113275092E74FF4D4711148FDF7AAFDC8E74FF48E
S1132760D1710E48FDF7A4FDAEE74FF4CE710B48CE
S1132770FDF79EFD93E740F285110848FDF798FDAB
S113278037E740F27F110548FDF792FD17E700BFD8
S1132790D0030020CF020020D00200206C6400008F
S11327A01003002050030020886400008F030020E1
S11327B008B501210D48FDF729FE0022114601202C
S11327C0FEF7F4F90A210A48FEF7A4FA01210948A0
S11327D0FDF71CFE012211460020FEF7E7F9022155
S11327E00548BDE80840FEF795BA00BF4041050022
S11327F002001E0000250A000300200010B501217C
S11328002048FDF703FE00210520FFF73FF90422CD
S1132810114600230520FFF761F900210520FFF789
S113282035F90521084600230422FFF757F94FF034
S113283001110120FFF72AF90123184604220A2175
S1132840FFF74CF9012308220A210220FFF746F979
S1132850012308220B210220FFF740F94FF48031B5
S11328600320FFF713F9012304220A210320FFF7B1
S113287035F901231A460B210320BDE81040FFF768
S11328802DB900BF00350A001F4A137830B4052B58
S113289034D8DFE803F0090F151B250340F271114A
S11328A01A4830BCFDF704BD4FF4AC71174830BC76
S11328B0FDF7FEBC4FF4AE71144830BCFDF7F8BC14
S11328C04FF4B071114830BCFDF7F2BC5168146983
S11328D0CB6904201B0223601070486030BC704731
S11328E053681069DC6901682143016008250224EA
S11328F005215D6011705C6030BC704740F2751159
S1132900024830BCFDF7D4BC20020020A8640000BB
S1132910074AD2E901135B0010B443F00103022417
S11329200120147048605DF8044BCB62704700BF0F
S113293020020020134A1378052B1ED8DFE803F089
S1132940080E101318034FF486710F48FDF7B0BC3E
S11329505368D168D962012313707047FFF7D8BF59
S11329600323137070474FF482710748FDF7A0BC2E
S11329704FF484710448FDF79BBC4FF488710248FE
S1132980FDF796BC20020020A8640000144B1B78BD
S1132990052B1FD8DFE803F0080D1214190340F2C9
S11329A03D111048FDF784BC40F227110D48FDF796
S11329B07FBC40F22B110B48FDF77ABCFFF7A8BF90
S11329C040F235110748FDF773BC40F23911054850
S11329D0FDF76EBC40F241110248FDF769BC00BF2F
S11329E020020020A864000010B51E4C2378052B9B
S11329F030D8DFE803F00C131A212803022000F07A
S1132A00ABFD082000F07CFD0523237010BD4FF4BE
S1132A10C6711548BDE81040FDF74ABC4FF4C871B3
S1132A201148BDE81040FDF743BC4FF4CA710E488D
S1132A30BDE81040FDF73CBC4FF4CC710A48BDE83A
S1132A401040FDF735BC4FF4CE710748BDE8104087
S1132A50FDF72EBC4FF4D3710348BDE81040FDF7D9
S1132A6027BC00BF20020020A86400002DE9F04F1D
S1132A7083B08D7801908A460C78EDB1012D00F079
S1132A808C81022D00F0A581032D00F09981042D85
S1132A9000F05E81052D00F0B881AB1F012B40F2E0
S1132AA05781082D00F0BA81092D00F0BC810A2D50
S1132AB040F04E81072301E040F2FF332341DB075E
S1132AC040F1468130231C2213FB052303F1844388
S1132AD003F5851304EBC3039B001B68002B00F074
S1132AE04E819AF803509AF80140EDB1012D00F09F
S1132AF05781022D00F06A81032D00F06481042DBA
S1132B0000F02081052D00F07A81AB1F012B40F2EB
S1132B101981082D00F08081092D00F081810A2D92
S1132B2040F01081072301E040F2FF332341DF0727
S1132B3040F1088130231C2213FB052303F1844355
S1132B4003F5851304EBC3039B001B68002B00F003
S1132B5011819AF802409AF80050ECB1012C00F06F
S1132B601981022C00F03881032C00F02381042CFD
S1132B7000F0F480052C00F03F81A31F012B40F2EC
S1132B80ED80082C00F04481092C00F04F810A2CC0
S1132B9040F0E480072301E040F2FF332B41DE07DD
S1132BA040F1DC800C23302212FB043404F18C4409
S1132BB0012304F5204403FA05F525609AF803502F
S1132BC09AF801609B464FF009093746002D00F042
S1132BD08880012D00F08D80022D00F09080032D5F
S1132BE000F09680042D0FD0052D00F0D080A91F91
S1132BF0C9B2012908D9082D00F0D880092D00F0A8
S1132C00F4800A2D00F0F48040F2DD318A4800920D
S1132C10FDF74EFB9AF801609AF80340009AB0461B
S1132C200C2112FB051505F1884505F520450BFA25
S1132C3007F72F60002C4DD0012C5DD0022C61D001
S1132C40032C62D0042C0FD0052C00F09D80A11F12
S1132C50C9B2012908D9082C00F0AA80092C00F077
S1132C60C1800A2C00F0C68040F20C4172480092E8
S1132C70FDF71EFB9AF803509AF80160009A0C21A4
S1132C8012FB041404F18C4404F520440BFA08F1FB
S1132C90B9F10109216098D1002D3CD0012D00F03B
S1132CA08280022D00F09B80032D00F08680042D8D
S1132CB05AD0052D00F0A680AB1FDBB2012B53D9EF
S1132CC0082D00F0A780092D00F0B3800A2D4BD108
S1132CD0072322E040F2FF313141C907C4D525461C
S1132CE0CDE740F2FF313141C8078DD5B0462C46BF
S1132CF096E74FF6C071F6E74FF6C071ECE740F681
S1132D00FF71F0E740F6FF71E6E74FF47F41E3E738
S1132D104FF47F41E7E740F2FF333341DB0723D52C
S1132D2030230C2213FB052505F18C4505F52045C0
S1132D300123019A03FA06F620232E60536003B0A0
S1132D40BDE8F08F40F2AE313B48FDF7B1FAF1E651
S1132D5040F2AE313848FDF7ABFAB3E640F20C412D
S1132D603548FDF7A5FA1DE740F20C413248FDF75E
S1132D709FFAD5E772213148FDF79AFAE9E6712105
S1132D802E48FDF795FAACE64FF6FF71A4E74FF62F
S1132D90FF71A8E74FF6C07300E74FF6C0738DE6E6
S1132DA04FF6C073C2E64FF6C073B6E70F219AE739
S1132DB00F2191E74FF47F43F0E64FF47F43ACE7F4
S1132DC04FF47F437AE64FF47F43AFE640F6FF7358
S1132DD0ACE640F6FF7371E640F6FF73DEE640F6BC
S1132DE0FF739AE74FF4404176E74FF440417AE7A6
S1132DF0072178E707216FE74FF6FF73CEE64FF61A
S1132E00FF7393E64FF6FF7387E74FF6FF7355E6BC
S1132E100F23C3E60F2380E70F2387E60F234DE636
S1132E204FF4404382E64FF4404347E64FF44043B7
S1132E30B4E64FF4404370E740630000A864000028
S1132E4070B5324B984284B004460D4616464CD0B9
S1132E502F4B984244D0636B13F0010F4FF00103E2
S1132E6030D1A363636BDA0735D50123E3632A7C8E
S1132E702B7869688DF80C208DF800302A7AEB687D
S1132E800291204669468DF801200193FFF734F83A
S1132E90D5E90502D5E9071302430B43A264314681
S1132EA063642046FFF7E2FD184B4FF4E0714FF4E2
S1132EB0F0729C42E163226422D0154B9C4219D0EB
S1132EC004B070BDE363636BDB07D0D549211148BF
S1132ED0FDF7EEF9CBE744210E48FDF7E9F9C4E725
S1132EE001210D48FDF792FAB5E701210B48FDF7E2
S1132EF08DFAB0E70A4B4FF480625A6004B070BD9B
S1132F00074B4FF400321A6004B070BD00C000409B
S1132F1000C40040A8640000009204000082040081
S1132F2000E100E070B585680C4C049E666115F004
S1132F30E00FC4E90101C4E9032303D09421084844
S1132F40FDF7B6F9022000F0FFFAD4E901230120CD
S1132F505B00002150602170D36270BD200200200C
S1132F60A86400001D4A1E4B52689A4210B503D053
S1132F70AD211C48FDF79CF9194B5C6B1A6C14408D
S1132F806106DC6304D55B6B5A061DD4FFF7D2FCE3
S1132F90230605D5124B5B6B18061AD4FFF7F6FC13
S1132FA0E10505D50E4B5B6BDA0508D4FFF71CFD74
S1132FB0A30600D410BDBDE81040FFF765BCBA21DC
S1132FC00848FDF775F9F1E7B2210648FDF770F9F5
S1132FD0DCE7B6210348FDF76BF9DFE720020020A8
S1132FE000C00040A86400001D4A1E4B52689A426B
S1132FF010B503D0CE211C48FDF75AF9194B5C6B70
S11330001A6C14406106DC6304D55B6B5A061DD44C
S1133010FFF790FC230605D5124B5B6B18061AD4F8
S1133020FFF7B4FCE10505D50E4B5B6BDA0508D45C
S1133030FFF7DAFCA30600D410BDBDE81040FFF78B
S113304023BCDB210848FDF733F9F1E7D321064817
S1133050FDF72EF9DCE7D7210348FDF729F9DFE76F
S11330602002002000C40040A86400001C4B10B5DE
S11330701C6ADA6A144062079C6206D51B6A5B0705
S113308024D4184B186800F03BFAE00707D5144B1A
S11330901B6AD9071FD4144B186800F031FAA20731
S11330A009D50F4B1B6A9B0706D4104BBDE8104093
S11330B0186800F025BA10BD0D48A521FDF7F8F8F1
S11330C00A4BBDE81040186800F01ABA9D21084860
S11330D0FDF7EEF8D5E7A1210548FDF7E9F8DAE7B1
S11330E00060044040020020380200203C0200201E
S11330F0C464000038B504460D46FEF729FF636B2F
S1133100002BFCD11DB1A368DA0709D538BD074BE4
S11331109B68DB07FAD50420BDE8384000F01CBAF0
S11331200420BDE8384000F00FBA00BF006004403E
S113313070B53A4B984284B004460D4664D00123DE
S11331406360636B002BFCD1A368DA0757D50223B5
S113315001212878636000236A788DF80330ADF884
S113316004308DF808308DF8021003238DF8010027
S1133170694620468DF800208DF806308DF807301A
S1133180FEF7FCFE636B002BFCD195ED027ADFEDBC
S1133190246AD5ED037A2A7E95F82030214E27EE55
S11331A0267A67EEA67ABCEEC77AFCEEE77A84ED5F
S11331B0047A2169E1609B000121C4ED057A43EAA8
S11331C042032A7CA161E161A87860641343164834
S11331D02A792264A362E3626B690360134AEB6990
S11331E0686A3360124B10604FF000621A60A36883
S11331F0DB0702D52046FFF77DFF04B070BD5021E8
S11332000C48FDF755F8A2E701210B48FDF7FEF83D
S113321000212046FFF76EFF91E700BF00600440E5
S113322000007A443C0200203802002040020020C2
S113323000E100E0C464000080061600F0B5534BC2
S1133240984285B004460D4600F090805E215048B7
S1133250FDF72EF8FF232361636C002BFCD1236957
S1133260FF2B03D064214A48FDF722F80023236191
S1133270636C002BFCD12369002B72D12046FEF72E
S11332804BFFA9692A6AE8696B69EF6A414E01F04C
S1133290010102F002020A432968029129798DF89A
S11332A00C1069798DF80010A9798DF80D1003437D
S11332B0A9680191297BA365C0238DF80E1062656E
S11332C06946636020463760FEF7F6FE636C002BA8
S11332D0FCD195F82530002B37D0636843F0040304
S11332E06360636C002BFCD1A3689F07FCD5A368C3
S11332F09E0740D595F82430DBB1636843F00103A1
S11333006360636C002BFCD1A368D907FCD5A36868
S1133310DA0735D51D4B01229C42626303D11E4B53
S11333204FF480021A6069792046FEF7A7FE05B0C3
S1133330F0BD636823F001036360A368DB07E9D58C
S11333408D211348FCF7B4FFE4E7636823F004031A
S11333506360A3689807CDD583210D48FCF7A8FFC7
S1133360C8E767210A48FCF7A3FF87E701210B4858
S1133370FDF74CF86EE77F210548FCF799FFB9E7A4
S113338089210348FCF794FFC4E700BF00A0044070
S1133390E4640000A802002000E100E090171A0095
S11333A038B53C4BDC6A9A6B1440E2075C630AD480
S11333B0A30700D438BD384D2B78032B50D8DFE851
S11333C003F02418110A344D2B78032B4FD8DFE86F
S11333D003F0413B29234FF4C5713048BDE8384020
S11333E0FCF766BF4FF4C3712C48BDE83840FCF7C6
S11333F05FBFEB6DAA68E918013A9342097B254A3D
S11334003BD201339162EB6538BD40F2751123481C
S1133410BDE83840FCF74CBF40F2B5111F48FCF73B
S113342047FFC5E769688B6B032223F001038B63B5
S113343010462A7000F090F8194A0023106885F8A5
S1133440603000F05DF8B3E740F2A9111348FCF7CF
S11334502FFFADE740F2A5111048FCF729FFA7E7BD
S11334604FF4C7710D48BDE83840FCF721BF40F266
S1133470B9110A48FCF71CFF9AE76B6891629A6BD2
S113348022F002029A639A6B022142F001029A63CB
S1133490297038BD00A0044044020020E464000008
S11334A0A80200202DE9F8430E4C05460126894662
S11334B003209046002700F047F86E63494604F164
S11334C00C00C4F8088084F86060277001F0FCF9EF
S11334D0AB6B656043F00203E7652670AB63BDE840
S11334E0F88300BF44020020014B93F8600070474A
S11334F044020020014B00221A607047AC020020F5
S113350072B6034A13680343136062B6704700BF80
S1133510AC02002072B6034A136823EA0003136066
S113352062B67047AC020020014B1868704700BFB8
S1133530AC020020034B0022C3E90022C3E90222AB
S11335401A617047B0020020024B012243F8202088
S1133550704700BFB0020020024B002243F8202035
S1133560704700BFB00200200D4B1A68002A00DD2E
S113357070475A68002AFBDC9A68002A06DD094A6B
S1133580136923F00403136130BF7047DB68002B19
S11335904FF0010001DDFDF7F3BEFDF717BF00BFDB
S11335A0B002002000ED00E080B54F4C4F4F94E88E
S11335B00F008AB0103401AE86E80F000FCC05ADC1
S11335C00FC522682A804A4B01227A64DB6C1B0EE9
S11335D040F08680474948484AF6E8520A60026843
S11335E042F0040202600B60444A136843F400533F
S11335F01360434A136A23F4441343F48813136295
S11336000024304602258DF800408DF80140FEF775
S113361053F968468DF80150FDF77EFF05A8FDF7C4
S1133620E5FC3848FDF720F9012211460320FDF797
S1133630BDFA05211120FDF76DFB224621462846DF
S1133640FDF7B4FAFEF718FEFFF76EFFC6061CD4AA
S113365041212D48FCF72CFE17E0FFF765FF4507D5
S11336601DD4FFF761FFC4071FD4FFF75DFF800778
S113367021D4FFF759FF010723D4FFF755FFC206F2
S113368025D4FFF751FF430627D4FFF74DFF002849
S1133690E3D1FFF769FFFFF747FF4507E1D5FEF7E1
S11336A007FEFFF741FFC407DFD5FEF713FEFFF760
S11336B03BFF8007DDD5FEF719FEFFF735FF010755
S11336C0DBD5FEF71FFEFFF72FFFC206D9D5FEF7A5
S11336D043FEFFF729FF4306D7D5FEF75BFED4E789
S11336E0012B86D180E700BF0465000000000E4076
S11336F0B081E00F90310E4098310E4064310E409D
S113370000400E4080BA8C012865000081F0004121
S113371002E000BF83F0004330B54FEA41044FEAB2
S1133720430594EA050F08BF90EA020F1FBF54EA4D
S1133730000C55EA020C7FEA645C7FEA655C00F0E9
S1133740E2804FEA5454D4EB5555B8BF6D420CDDBA
S11337502C4480EA020281EA030382EA000083EA3D
S1133760010180EA020281EA0303362D88BF30BDDD
S113377011F0004F4FEA01314FF4801C4CEA113133
S113378002D0404261EB410113F0004F4FEA033392
S11337904CEA133302D0524263EB430394EA050F1D
S11337A000F0A780A4F10104D5F1200E0DDB02FA8C
S11337B00EFC22FA05F2801841F1000103FA0EF220
S11337C0801843FA05F359410EE0A5F120050EF1E6
S11337D0200E012A03FA0EFC28BF4CF0020C43FA17
S11337E005F3C01851EBE37101F0004507D54FF024
S11337F0000EDCF1000C7EEB00006EEB0101B1F574
S1133800801F1BD3B1F5001F0CD349085FEA3000B9
S11338104FEA3C0C04F101044FEA445212F5800FC4
S113382080F09A80BCF1004F08BF5FEA500C50F161
S1133830000041EB045141EA050130BD5FEA4C0C44
S1133840404141EB010111F4801FA4F10104E9D1CD
S113385091F0000F04BF01460020B1FA81F308BFC4
S11338602033A3F10B03B3F120020CDA0C3208DD90
S113387002F1140CC2F10C0201FA0CF021FA02F16B
S11338800CE002F11402D8BFC2F1200C01FA02F1DB
S113389020FA0CFCDCBF41EA0C019040E41AA2BF00
S11338A001EB0451294330BD6FEA04041F3C1CDAC8
S11338B00C340EDC04F11404C4F1200220FA04F0E8
S11338C001FA02F340EA030021FA04F345EA030192
S11338D030BDC4F10C04C4F1200220FA02F001FA54
S11338E004F340EA0300294630BD21FA04F02946D6
S11338F030BD94F0000F83F4801306BF81F480116F
S11339000134013D4EE77FEA645C18BF7FEA655CE1
S113391029D094EA050F08BF90EA020F05D054EAB3
S1133920000C04BF1946104630BD91EA030F1EBFB8
S11339300021002030BD5FEA545C05D140004941BC
S113394028BF41F0004130BD14F580043CBF01F5AF
S1133950801130BD01F0004545F0FE4141F4700195
S11339604FF0000030BD7FEA645C1ABF1946104670
S11339707FEA655C1CBF0B46024650EA013406BF71
S113398052EA033591EA030F41F4002130BD00BF30
S113399090F0000F04BF0021704730B54FF48064ED
S11339A004F132044FF000054FF0000150E700BF6E
S11339B090F0000F04BF0021704730B54FF48064CD
S11339C004F1320410F0004548BF40424FF00001BA
S11339D03EE700BF42004FEAE2014FEA31014FEAFD
S11339E002701FBF12F07F4393F07F4F81F060514C
S11339F0704732F07F4208BF704793F07F4F04BF97
S1133A0041F40021704730B54FF4607401F0004573
S1133A1021F000411CE700BF50EA010208BF7047D3
S1133A2030B54FF000050AE050EA010208BF7047C4
S1133A3030B511F0004502D5404261EB41014FF42D
S1133A40806404F132045FEA915C3FF4D8AE4FF035
S1133A5003025FEADC0C18BF03325FEADC0C18BF18
S1133A60033202EBDC02C2F1200300FA03FC20FA69
S1133A7002F001FA03FE40EA0E0021FA02F11444B6
S1133A80BDE600BF70B54FF0FF0C4CF4E06C1CEACF
S1133A9011541DBF1CEA135594EA0C0F95EA0C0F40
S1133AA000F0DEF82C4481EA030621EA4C5123EAB3
S1133AB04C5350EA013518BF52EA033541F48011E2
S1133AC043F4801338D0A0FB02CE4FF00005E1FB95
S1133AD002E506F00042E0FB03E54FF00006E1FBDF
S1133AE003569CF0000F18BF4EF0010EA4F1FF0422
S1133AF0B6F5007F64F5407404D25FEA4E0E6D4162
S1133B0046EB060642EAC62141EA55514FEAC52072
S1133B1040EA5E504FEACE2EB4F1FD0C88BFBCF5EE
S1133B20E06F1ED8BEF1004F08BF5FEA500E50F19F
S1133B30000041EB045170BD06F0004646EA010165
S1133B4040EA020081EA0301B4EB5C04C2BFD4EB97
S1133B500C0541EA045170BD41F480114FF0000E90
S1133B60013C00F3AB8014F1360FDEBF002001F0FE
S1133B70004170BDC4F10004203C35DA0C341BDC78
S1133B8004F11404C4F1200500FA05F320FA04F04A
S1133B9001FA05F240EA020001F0004221F000417E
S1133BA010EBD37021FA04F642EB06015EEA430EF1
S1133BB008BF20EAD37070BDC4F10C04C4F1200521
S1133BC000FA04F320FA05F001FA04F240EA0200D4
S1133BD001F0004110EBD37041F100015EEA430EA5
S1133BE008BF20EAD37070BDC4F1200500FA05F2C5
S1133BF04EEA020E20FA04F301FA05F243EA020344
S1133C0021FA04F001F0004121FA04F220EA020052
S1133C1000EBD3705EEA430E08BF20EAD37070BD98
S1133C2094F0000F0FD101F00046400041EB010178
S1133C3011F4801F08BF013CF7D041EA060195F05A
S1133C40000F18BF704703F00046520043EB030314
S1133C5013F4801F08BF013DF7D043EA0603704701
S1133C6094EA0C0F0CEA135518BF95EA0C0F0CD00C
S1133C7050EA410618BF52EA4306D1D181EA030152
S1133C8001F000414FF0000070BD50EA410606BF4C
S1133C901046194652EA430619D094EA0C0F02D191
S1133CA050EA013613D195EA0C0F05D152EA0336D6
S1133CB01CBF104619460AD181EA030101F00041F4
S1133CC041F0FE4141F470014FF0000070BD41F03D
S1133CD0FE4141F4780170BD70B54FF0FF0C4CF417
S1133CE0E06C1CEA11541DBF1CEA135594EA0C0F36
S1133CF095EA0C0F00F0A7F8A4EB050481EA030E83
S1133D0052EA03354FEA013100F088804FEA033369
S1133D104FF0805545EA131343EA12634FEA022237
S1133D2045EA111545EA10654FEA00260EF00041F8
S1133D309D4208BF964244F1FD0404F5407402D24A
S1133D405B084FEA3202B61A65EB03055B084FEADB
S1133D5032024FF480104FF4002CB6EB020E75EBD8
S1133D60030E22BFB61A754640EA0C005B084FEA00
S1133D703202B6EB020E75EB030E22BFB61A75467D
S1133D8040EA5C005B084FEA3202B6EB020E75EBC8
S1133D90030E22BFB61A754640EA9C005B084FEA40
S1133DA03202B6EB020E75EB030E22BFB61A75464D
S1133DB040EADC0055EA060E18D04FEA051545EA3C
S1133DC016754FEA06164FEAC30343EA52734FEAE5
S1133DD0C2025FEA1C1CC0D111F4801F0BD141EA5E
S1133DE000014FF000004FF0004CB6E711F4801FC3
S1133DF004BF01430020B4F1FD0C88BFBCF5E06FA3
S1133E003FF6AFAEB5EB030C04BFB6EB020C5FEAB2
S1133E10500C50F1000041EB045170BD0EF0004E07
S1133E204EEA113114EB5C04C2BFD4EB0C0541EA39
S1133E30045170BD41F480114FF0000E013C90E636
S1133E4045EA060E8DE60CEA135594EA0C0F08BFFA
S1133E5095EA0C0F3FF43BAF94EA0C0F0AD150EAF9
S1133E6001347FF434AF95EA0C0F7FF425AF10468C
S1133E7019462CE795EA0C0F06D152EA03353FF4B4
S1133E80FDAE1046194622E750EA410618BF52EA31
S1133E9043067FF4C5AE50EA41047FF40DAF52EA05
S1133EA043057FF4EBAE12E74FEA4102B2F1E0437F
S1133EB024BFB3F5001CDCF1FE5C0DD901F0004C0D
S1133EC04FEAC0024CEA5070B2F1004F40EB83005D
S1133ED008BF20F00100704711F0804F21D113F189
S1133EE03872BCBF01F00040704741F480114FEAC2
S1133EF05252C2F11802C2F1200C10FA0CF320FA4B
S1133F0002F018BF40F001004FEAC1234FEAD32367
S1133F1003FA0CFC40EA0C0023FA02F34FEA4303D1
S1133F20CCE77FEA625307D150EA01331EBF4FF05A
S1133F30FE4040F44000704701F0004040F0FE4075
S1133F4040F40000704700BF08B5074B044613B1A6
S1133F500021AFF30080054B1868836A03B19847CA
S1133F60204602F0E7F800BF0000000038650000BA
S1133F7070B50D4E0D4CA41BA4100025A54209D10B
S1133F800B4E0C4C02F09EF9A41BA4100025A54274
S1133F9005D170BD56F8253098470135EEE756F83F
S1133FA0253098470135F2E7E4010020E4010020C0
S1133FB0E4010020E801002002440346934200D1BA
S1133FC0704703F8011BF9E72DE9F04788B0002B8F
S1133FD0149F109EDDE9121A1D4627F02007BBBF6F
S1133FE003F100431D4600232D231446B8BF144695
S1133FF0462F0B7004D0452F00D10136022300E078
S1134000032307AA049206AACDE902A2CDE9003649
S113401022462B4600F0F4FC472F804602D1119B28
S1134020DB0726D5462F08EB060911D198F8003096
S1134030302B0AD1002200232046294602F0D2F870
S113404018B9C6F10106CAF80060DAF800309944DC
S1134050002200232046294602F0C4F838B9302251
S1134060079B4B4505D2591C07911A70F8E7CDF808
S11340701C90079B159AA3EB08034046136008B0F5
S1134080BDE8F087F7B500290446BABF49422D239D
S11340902B23092904F8022B437020DD0DF10703BB
S11340A01F460A2691FBF6F506FB15113031092D42
S11340B003F8011C03F1FF32294609DC3031023BCD
S11340C002F8011CBB42224604D3101A03B0F0BD0F
S11340D01346E7E713F8012B04F8012BF2E730232A
S11340E019448370021DC170EFE700002DE9F04F01
S11340F091B00C46DDF8688016461F46054601F06F
S11341003DFA03680893184600F0E6FB00230E937B
S1134110D8F800300990073323F0070303F10802AD
S113412094F818A0D4F800B0C8F80020D3E900230C
S1134130C4E91223D4E9128929F000430B93CDF882
S113414028804FF0FF32A94BDDE90A0102F07CF828
S113415070BB4FF0FF32A54BDDE90A0102F056F8BF
S113416030BB002200234046494602F045F810B116
S11341702D2384F843309E4A9E4BBAF1470F8CBFDF
S113418090469846032323612BF0040323604FF0E9
S11341900009009733460FAA2146284600F0ECF99F
S11341A0013040F090804FF0FF3011B0BDE8F08F47
S11341B042464B464046494602F046F810B18E4A04
S11341C08E4BDAE76368591C4BF480620EA90DA884
S11341D040D1062363600DF13303CDE901234FF091
S11341E0000C63682260CDE9030A009342464B4603
S11341F0CDE9051C2846FFF7E7FE0AF0DF03472B4D
S1134200804609D10D9BD81C02DB6268934247DDCE
S1134210AAF1020A5FFA8AFABAF1650F0D9924D855
S11342200139524604F150000D91FFF72BFF0E9A0D
S11342301318012A8146236102DC2268D10701D5C3
S1134240013323619DF83330002BA2D02D2384F851
S113425043309EE7BAF1670F00F07881BAF1470F57
S1134260B9D1002BB7D10123B4E7BAF1660F19D144
S1134270002963680CDD216113B92268D20702D5D5
S113428001330B4423610D9BA3654FF00009D9E76B
S113429013B92268D00701D50233F3E70123F1E70C
S11342A04FF0670ADDE90D32934205DB2268236192
S11342B0D107E8D50133E5E7002BD4BFC3F10203EE
S11342C001231344DEE723685A0507D423694246D1
S11342D031462846B84701302BD164E7BAF1650F5F
S11342E040F2DD8000220023D4E9120101F07AFFBC
S11342F0002833D00123424A31462846B8470130CA
S11343003FF451AFDDE90D239A4202DB2368D8075D
S11343100FD5DDE9082331462846B84701303FF47C
S113432042AF4FF0000804F11A090E9B013B4345CC
S113433009DC23689B0700F10481E0680F9B984225
S1134340B8BF184631E701234A4631462846B847E4
S113435001303FF428AF08F10108E6E70D9B002B7C
S11343602BDC0123264A31462846B84701303FF466
S11343701AAF0D9B23B90E9B13B92368D907D8D55F
S1134380DDE9082331462846B84701303FF40BAF36
S11343904FF0000904F11A0A0D9B5B424B4501DC06
S11343A00E9B94E70123524631462846B847013014
S11343B03FF4F9AE09F10109EEE70E9AA36D9A42B2
S11343C0A8BF1A46002A914607DD134631464246E5
S11343D02846B84701303FF4E6AE04F11A034FF023
S11343E0000B29EAE9790A9316E000BFFFFFEF7F8B
S11343F0406500003C65000048650000446500001D
S11344004C65000001230A9A31462846B84701301A
S11344103FF4C9AE0BF1010BD4F858A0AAEB090381
S11344205B45EFDCDDE90D239A42D04415DB2368BC
S1134430DA0712D40E9B0D99A3EB0A02A3EB010A2F
S11344409245A8BF9246BAF1000F0EDC4FF0000867
S11344502AEAEA7A04F11A0919E0DDE90823314667
S11344602846B8470130E5D19DE6534642463146D9
S11344702846B8470130E9D195E601234A4631463A
S11344802846B84701303FF48EAE08F10108DDE953
S11344900D239B1AA3EB0A034345EEDC49E70E9A6E
S11344A0012A01DCDB073AD501234246314628467E
S11344B0B84701303FF477AEDDE90823314628469A
S11344C0B847013008F101083FF46DAE0E9B00229D
S11344D003F1FF3AD4E91201002301F083FEC8B9C5
S11344E05346424631462846B84701300ED15AE673
S11344F00123524631462846B84701303FF453AEB3
S113450008F101080E9B013B4345F1DC4B4604F1E5
S11345105002DDE64FF0000804F11A0AF2E7012325
S1134520DFE701234A4631462846B84701303FF4C5
S11345303AAE08F10108E3680F9A9B1A4345F0DC90
S1134540FBE64FF0000804F11909F4E7002B3FF4EF
S11345508AAE4FF0000CCDE9051C0DF13301226049
S1134560CDE9030ACDE90121009342464B46284692
S1134570FFF72AFD804645E62DE9F04791461F46A0
S11345808A680B69DDF820809342B8BF1346C9F8E6
S1134590003091F8432006460C4612B10133C9F8A5
S11345A000302368990642BFD9F800300233C9F8B5
S11345B00030256815F0060507D104F1190AE368EF
S11345C0D9F800209B1AAB4228DC94F843302268C7
S11345D0003318BF012392062DD404F14302394657
S11345E03046C047013020D02368E568D9F8002060
S11345F003F00603042B08BFAD1AA36822690CBF9D
S113460025EAE57500259342C4BF9B1AED184FF0C7
S113461000091A344D451AD1002008E001235246FE
S113462039463046C047013003D14FF0FF30BDE872
S1134630F0870135C3E7E1185A1C302081F84300A4
S1134640224494F8451082F843100233C5E701234D
S1134650224639463046C0470130E6D009F1010907
S1134660D8E700002DE9F04301F1430C0C46097E24
S113467085B06E291746064698460C9A00F0B3801A
S113468022D8632936D00AD8002900F0B9805829E5
S113469000F0838004F1420584F8421032E064297A
S11346A001D06929F6D120681368050603F10401D5
S11346B02AD51B681160002B03DA2D225B4284F893
S11346C043206F480A2239E0732900F09D8008D8FE
S11346D06F2920D07029DDD1236843F020032360A3
S11346E003E0752917D07829D4D1782384F845308C
S11346F0644855E01368191D1B68116004F14205F4
S113470084F8423001238CE01B68116010F0400FE4
S113471018BF1BB2CFE713682568181D1060280660
S113472001D51B6802E06806FBD51B8854486F2935
S113473014BF0A220822002184F843106568A5608A
S1134740002DC0F29580216821F004012160002B26
S11347503DD1002D40F08E806546082A0BD1236898
S1134760DB0708D5236962689A42DEBF302305F867
S1134770013C05F1FF35ACEB05032361CDF8008066
S11347803B4603AA21463046FFF7F6FE01304DD1E1
S11347904FF0FF3005B0BDE8F083394884F8451088
S11347A0136821681D1D1B6815600A060BD5CA070E
S11347B044BF41F0200121601BB9226822F020028D
S11347C022601022B7E74D0648BF9BB2EFE765466B
S11347D0B3FBF2F102FB1133C35C05F8013D0B4658
S11347E00029F5D1B9E7136825686169181D1060BF
S11347F028061B6801D5196002E06A06FBD51980FA
S1134800002323616546B9E71368191D11601D680B
S113481062680021284600F0CBFE08B1401B6060AE
S113482063682361002384F84330A7E723692A4699
S113483039463046C0470130AAD023689B0713D4B9
S1134840E068039B9842B8BF1846A3E701234A4691
S113485039463046C04701309AD00135E368039A9F
S11348609B1AAB42F2DCEBE7002504F11909F5E7EA
S1134870002BACD1037884F8423004F142056CE794
S11348804E6500005F6500000EB400B59CB01DAB22
S1134890029006906FF0004109480791049109497C
S11348A053F8042B05910068019302A901F0C6FA9C
S11348B0029B00221A701CB05DF804EB03B0704731
S11348C0140000200802FFFF034611F8012B03F82F
S11348D0012B002AF9D17047034613F8012B002A53
S11348E0FBD1181A013870472DE9F74F03690C6999
S11348F0A3428046C0F28280013C01F114074FEAD2
S1134900840C00F1140657F8245056F8240006EBE2
S11349100C03013507EB0C090193B0FBF5F595B3D6
S11349204FF0000A3846B646D34650F8042B93B2EB
S113493005FB03A34FEA134A9BB2ABEB0303120C30
S1134940DEF800B005FB02A213FA8BF34FEA124A19
S11349501FFA82FBDEF80020CBEB124202EB23426B
S11349609BB243EA024381454FEA224B4EF8043B93
S1134970DBD256F80C3033B9019B043B9E421A46F5
S113498030D3C8F81040404601F082F8002825DBF7
S1134990013530464FF0000C57F8042BD0F800E0F6
S11349A093B2ACEB0303120C13FA8EF3C2EB1E4268
S11349B002EB23429BB243EA0243B9454FEA224C3D
S11349C040F8043BE8D256F8242006EB84032AB9C5
S11349D0043B9E421A460BD3C8F81040284603B045
S11349E0BDE8F08F1268043B002ACAD1013CC5E738
S11349F01268043B002AEFD1013CEAE70020EEE70D
S1134A002DE9F04F456A97B016461F460446DDF877
S1134A108C80CDE902673DB9102000F0BDFD6062D5
S1134A20C0E901550560C560636A196851B15A68E7
S1134A304A60012393408B60204600F048FE636A7D
S1134A4000221A603B1EBBBF23F0004303930023E4
S1134A500122ACBFC8F80030C8F80020B24BDDF822
S1134A600C8033EA08031BD1229A42F20F731360BD
S1134A70029B23B9C8F31300002800F04F85249B40
S1134A8053B9AA4B21E0AA4B05930833249A136027
S1134A90059817B0BDE8F08FA44B05930333F5E7F1
S1134AA0DDE90267002200233046394601F09AFB13
S1134AB0824660B1229A01231360249B002B00F0EC
S1134AC02A859C4B249A1360013B0593E0E714ABC1
S1134AD0019315AB009332463B46204601F04FF854
S1134AE0C8F30A558346002D7CD0C7F3130343F063
S1134AF07F59B04649F44019A5F2FF35CDF84CA0D2
S1134B0000228D4B40464946FEF704FE80A3D3E9BC
S1134B100023FEF7B7FF80A3D3E90023FEF7FCFDD3
S1134B20064628460F46FEF743FF7DA3D3E900233C
S1134B30FEF7A8FF02460B4630463946FEF7ECFD69
S1134B4006460F4601F096FB0022824600233046BB
S1134B50394601F051FB48B15046FEF729FF324671
S1134B603B4601F03FFB08B90AF1FF3ABAF1160FD0
S1134B7059D8724901EBCA01DDE90223D1E90001E8
S1134B8001F058FB002850D00AF1FF3A0023129399
S1134B90149B5D1BB5F1010849BFC5F10103002356
S1134BA008934FF0000858BF0893BAF1000F3EDB9A
S1134BB00023D044CDF834A00993209B092B00F2A4
S1134BC09080052BC4BF043B2093209BA3F10203D8
S1134BD0CCBF00250125032B00F28F80DFE803F012
S1134BE07D7F3171DDE914531D4405F232402028E4
S1134BF013DDC0F14000029B08FA00F805F21240F0
S1134C0023FA00F048EA0000FEF7C2FE01238046C2
S1134C10A1F1F879013D139372E7029BC0F12000E2
S1134C2003FA00F0F0E70123B1E71290B0E7089B24
S1134C30A3EB0A030893CAF10003099300230D931D
S1134C40BBE701230C93219B002B59DD0693994666
S1134C50666A00227260042202F1140098427168AC
S1134C6070D9204600F0FFFC636A30601B6805932E
S1134C70B9F10E0F00F2EB80002D00F0E8809DEDFD
S1134C80027BBAF1000F8DED107B79DD2B4A0AF01F
S1134C900F0302EBC30393ED007B4FEA2A16F006E1
S1134CA08DED0A7B6AD5264BDDE91001D3E9082393
S1134CB0FFF712F8CDE9020106F00F060325204F95
S1134CC051E001230C93219B534403F10109069302
S1134CD04B46012BB8BF0123BAE70023B2E70023F8
S1134CE0F0E70125002320930C954FF0FF33069342
S1134CF09946002212232192AAE701230C93F4E798
S1134D000123069399461A46F5E700BFAFF30080E6
S1134D1061436F63A787D23FB3C8608B288AC63FBD
S1134D20FB799F501344D33F0000F07F7965000066
S1134D30706500004D6500000000F83FA8650000A4
S1134D408065000001317160520085E7F10708D5E4
S1134D50DDE90A01D7E90023FEF794FECDE90A0153
S1134D60013576100837002EF0D1DDE90A23DDE99C
S1134D700201FEF7B1FFCDE902011AE002259EE728
S1134D8000F0A080CAF100069F4BA04F06F00F026E
S1134D9003EBC203D3E90023DDE91001FEF772FE41
S1134DA0CDE90201361100230225002E7FD1002B0C
S1134DB0E1D1129B002B00F08780DDE9026700221D
S1134DC0934B3046394601F017FA00287CD0B9F1EC
S1134DD0000F79D0069B002B35DD0AF1FF330A93CF
S1134DE0394600228B4B3046FEF74CFECDE90201DA
S1134DF0069F01352846FEF7DBFDDDE90223FEF7B9
S1134E0041FE0022844BFEF787FC0546A1F1507653
S1134E10002F5DD10022814BDDE90201FEF77AFC0F
S1134E202A463346CDE9020101F004FA002840F095
S1134E3088822A4606F10043DDE9020101F0DCF92B
S1134E40002840F07C82DDE91023CDE90223159B84
S1134E50002BC0F25081BAF10E0F00F34C816A4B63
S1134E6003EBCA0393ED007B219B002B8DED067BA6
S1134E7080F2D880B9F1000F00F3D48040F05E8254
S1134E800022664B51EC170BFEF7FCFDDDE9022313
S1134E9001F0C6F94F464E46002840F03482059B87
S1134EA0059A5D1C312313700AF1010A2FE2F207FF
S1134EB005D5D7E90023FEF7E5FD0135012376107A
S1134EC0083772E7022574E7CDF828A04F4691E72A
S1134ED04D4B03EBC70353E902010C9B002B47D056
S1134EE002460B4600204E49FEF7F6FE2A4633469C
S1134EF0FEF710FCCDE90E01059DDDE9020101F08C
S1134F00B9F90646FEF754FD02460B46DDE90201F7
S1134F10FEF700FC303605F8016BDDE90E23CDE920
S1134F20020101F069F9002863D1DDE902230020C0
S1134F303749FEF7EFFBDDE90E2301F05DF90028A8
S1134F4040F0B780059BEB1A9F427FF77CAF0022AD
S1134F50304BDDE90E01FEF795FD0022CDE90E018F
S1134F602C4BDDE90201FEF78DFDCDE90201C4E71A
S1134F7033462A46FEF786FD059BCDE90E01DD1971
S1134F801E46DDE9020101F075F90746FEF710FD42
S1134F90303702460B46DDE90201FEF7BBFB06F89B
S1134FA0017BAE42CDE902014FF0000226D11C4B39
S1134FB0DDE90E01FEF7B0FB02460B46DDE9020116
S1134FC001F038F9002874D1DDE90E2300201449DA
S1134FD0FEF7A0FB02460B46DDE9020101F00CF9E5
S1134FE000283FF430AF15F8013C302B05F1FF32B7
S1134FF002D0DDF828A04AE01546F4E7054BFEF799
S113500041FDCDE90201BCE7A86500008065000010
S11350100000F03F0000244000001C400000144049
S11350200000E03FDDE90267059DDDE90623304627
S11350303946FEF751FE01F01DF98046FEF7B8FC33
S1135040DDE90623FEF71EFD02460B4630463946CF
S113505008F13006FEF75EFB05F8016B059EAE1BFA
S1135060B14502460B4639D1FEF756FBDDE906236E
S113507006460F4601F0DEF8C8B9DDE906233046DE
S1135080394601F0AFF810B118F0010F0FD15946AD
S1135090204600F01CFB0023229A2B700AF1010326
S11350A01360249B002B3FF4F3AC1D60F0E4CDF8B7
S11350B028A015F8012C392A05F1FF3308D1059AE7
S11350C09A4209D10A9B01330A9330231370134681
S11350D01A7801321A708CE71D46EAE700229B4BCE
S11350E0FEF7D0FC0022002306460F4601F07AF8B2
S11350F000289AD0CBE70C9A002A00F08B80209AE3
S1135100012A6EDC139A002A67D003F23343DDE9E7
S11351100857089A01211A4420460892984400F03E
S113512076FB0646002D0CDDB8F1000F09DD454580
S1135130089A2B46A8BF4346D21A0892ED1AA8EB48
S11351400308099BEBB10C9B002B67D08FB1314650
S11351503A46204600F0FAFB5A46014606462046E7
S113516000F05EFB59460A90204600F0B0FA0A9B14
S11351709B46099BDA1B04D05946204600F0E6FB07
S113518083460121204600F042FB0D9B0746002B7D
S113519000F0CB811A460146204600F0D7FB209B45
S11351A0012B074640DC029B002B39D1039BC3F340
S11351B01303002B36D1039B23F000431B0D1B0567
S11351C02BB1089B0133089308F1010801230993CB
S11351D00D9B002B2AD1012030E0149BC3F1360330
S11351E095E7099B09F1FF37BB42BFBF099B0997AC
S11351F0FA1A0D9BBBBF9B180D93DF1B0027B9F157
S1135200000FB5BF089B089DA3EB09054B46B8BF2B
S113521000237EE7DDE908570C9E83E7099AABE794
S11352200023D4E7029BD2E7002309933B6907EBF1
S11352308303186900F09DFAC0F12000404410F087
S11352401F0047D0C0F12003042B3BDD089BC0F1B5
S11352501C000344089305448044089B002B05DD8F
S113526059461A46204600F0BFFB8346B8F1000FAA
S113527005DD39464246204600F0B6FB0746129B40
S113528053B33946584600F003FC002824DA0023BF
S113529059460A22204600F031FA0C9B0AF1FF3AE3
S11352A08346002B00F04881002331460A22204621
S11352B000F024FA069B002B06464FDC209B022BB1
S11352C04CDD11E0C9D0089A1C331A4408921D44DD
S11352D09844C2E70346F6E7B9F1000F38DC209B97
S11352E0022B35DDCDF81890069B63B939460522AB
S11352F0204600F003FA01460746584600F0C8FB72
S113530000283FF7CCAD219B059D6FEA030A4FF0BF
S113531000093946204600F0DAF9002E3FF4B7AE12
S1135320B9F1000F05D0B14503D04946204600F03D
S1135330CEF93146204600F0CAF9A8E600273E46D9
S1135340E1E7DDF828A03E46A9E500BF00002440BF
S11353500C9BCDF81890002B00F0F580002D05DD96
S113536031462A46204600F03FFB0646099B002BA7
S11353704CD07168204600F076F932690232054655
S1135380920006F10C010C3000F062F9012229466A
S1135390204600F029FB059B0893029B03F00103C0
S11353A0B1460993064639465846FFF79DFA4946E1
S11353B0054600F13008584600F06AFB3246029078
S11353C03946204600F07EFBC368024603BB014613
S11353D00A90584600F05CFB0A9A034611462046A0
S11353E00A9300F074F90A9BA3B9209A92B9099A16
S11353F082B9B8F1390F29D0029B002B01DD05F1E8
S11354003108089B5D1C83F8008082E73046C2E7C0
S11354100123E3E7029A002A04DB24D1209A12BB79
S1135420099A02BB002BECDD59460122204600F00C
S1135430DBFA3946834600F02BFB002803DCE0D17D
S113544018F0010FDDD0B8F1390FD8D1089B089AB4
S11354505D1C3923137015F8013C392B05F1FF321B
S11354604ED0013353E0089A002B02F1010506DD0A
S1135470B8F1390FEAD008F10108089BC3E7059B8E
S1135480069A05F8018CEB1A934221D05946002361
S11354900A22204600F032F9B14583464FF000035A
S11354A04FF00A024946204605D100F027F981460B
S11354B00646089577E700F021F931468146002336
S11354C00A22204600F01AF90646F2E74FF00009D6
S11354D059460122204600F087FA3946834600F0F7
S11354E0D7FA0028B7DC02D118F0010FB3D115F8B0
S11354F0013C302B05F1FF327FF40BAF1546F6E784
S1135500059B934205D1059A0AF1010A31231370D0
S1135510FFE615469FE7174BFFF7D7BA249B002BEE
S11355207FF4B1AA144BFFF7D0BA209B012B7FF76D
S11355303AAE0D9B09934EE6069B002B03DC209BA1
S1135540022B3FF7D1AE059D39465846FFF7CCF9FB
S113555000F1300805F8018B059B069AEB1A9A4274
S1135560B4DD594600230A22204600F0C7F88346DA
S1135570EAE700BF4C65000070650000044B1B683F
S1135580186A044B002808BF1846F030704700BF63
S11355901400002078000020024B0146186800F037
S11355A099BB00BF140000200000000000000000B0
S11355B001F0FF01102A2BDB10F0070F08D010F8C0
S11355C0013B013A8B422DD010F0070F42B3F6D1C4
S11355D0F0B441EA012141EA014122F007047FF0DD
S11355E000070023F0E80256083C85EA010586EA34
S11355F0010685FA47F5A3FA87F586FA47F6A5FA70
S113560087F68EB9EED1F0BC01F0FF0102F007027B
S113561032B110F8013B013A83EA010313B1F8D126
S11356200020704701387047002D06BF3546033807
S1135630073815F0010F07D1013015F4807F02BF40
S1135640013015F4C03F0130F0BC0138704700BF91
S113565010B5431E0A44914200D110BD11F8014B0C
S113566003F8014FF7E770B5456A04460E463DB9A5
S11356701020FFF791FF6062C0E901550560C56025
S1135680656AEB6883B1636ADB6853F82600B8B9CE
S1135690012101FA06F56A1D9200204600F0BEFAC7
S11356A060B1C0E901650EE021220421204600F02A
S11356B0B5FA636AE860DB68002BE4D1002070BDB2
S11356C0026843F826200023C0E90333F7E770B5E6
S11356D0446A06460D463CB91020FFF75DFF706230
S11356E0C0E901440460C4603DB1736A6A68DB6860
S11356F053F82210296043F8225070BD2DE9F0417F
S11357000D691F4606460C4601F1140C0023DCF813
S1135710000081B202FB01710F0C000C02FB00704F
S113572089B2013301EB00419D424FEA10474CF826
S1135730041BECDCD7B1A368AB4212DC61683046D1
S11357400131FFF790FF2269023204F10C01804617
S113575092000C30FFF77CFF21463046FFF7B7FF7D
S1135760444604EB850301355F6125612046BDE8AD
S1135770F081020C12040346B2B90304102013F0A2
S11357807F4F04BF1B02083013F0704F04BF1B018E
S1135790043013F0404F04BF9B000230002B06DBA3
S11357A05B0003D5013070470020E8E720207047F4
S11357B0036813F0070201460BD0DA0723D49807D5
S11357C049BF5B089B0801200B605CBF0B60022093
S11357D0704798B2A8B91B0C102013F0FF0F04BF38
S11357E01B0A08301A0704BF1B0904309A0704BFB8
S11357F09B080230DA0702D45B0806D001300B6044
S113580070471046E9E7002070472020704710B524
S11358100C460121FFF727FF01224461026110BDFC
S11358202DE9F74F14460A6923699A42B8BF0B461B
S11358308846BCBFA0461C46D8F81070D4F8109017
S1135840D8F80830D8F8041007EB0906B342B8BFFB
S11358500131FFF708FF00F1140505EB860E2B4616
S11358600022734516D304F1140208F1140102EB6B
S1135870890301EB87070093009B019293420CD8A4
S1135880002E03DD5EF8043D002B5DD0066103B0FD
S1135890BDE8F08F43F8042BE3E7B2F800B0BBF1A6
S11358A0000F23D08946AC464FF0000859F8044B4A
S11358B0DCF800A0A3B21FFA8AFA0BFB03A34FEA99
S11358C0144ADCF8004043444FEA14480BFB0A84B2
S11358D004EB1344E2469BB243EA04434F454FEAC8
S11358E014484AF8043B2BD8CCF80480019BB3F845
S11358F002A00432BAF1000F20D02B688946A846D2
S11359004FF0000BB9F800C0B8F802400AFB0C4491
S11359105C44C4469BB243EA04434CF8043B59F844
S1135920043BB8F804B01B0C0AFB03B303EB1443A9
S11359304F454FEA134B05D8C8F8043004359BE7AC
S1135940D446B3E7E046DDE7013E99E72DE9F843A5
S1135950154612F0030206460F4607D0013A214CC1
S1135960002354F82220FFF7C9FE0746AD1035D0B6
S1135970746A3CB91020FFF70FFE7062C0E901445D
S11359800460C460D6F82480D8F808404CB940F2CA
S113599071213046FFF73BFF0023C8F80800044696
S11359A003604FF00008EB070AD53946224630461B
S11359B0FFF736FF394681463046FFF788FE4F46EB
S11359C06D100BD0206838B9224621463046FFF7C7
S11359D027FF2060C0F800800446E4E73846BDE8AD
S11359E0F88300BF706600002DE9F0470C464FEACB
S11359F0621A236949680AEB0309A3680746164635
S1135A0009F10105AB4232DB3846FFF72CFE0023D7
S1135A10804600F114011A4653452BDB20692AEA1B
S1135A20EA7A04F1140316F01F0201EB8A0103EB76
S1135A30800C25D0C2F1200E00201E688A469640B4
S1135A4030434AF8040B53F8040B9C4520FA0EF03B
S1135A5014D8486008B109F10205013D3846C8F878
S1135A6010502146FFF733FE4046BDE8F087013170
S1135A705B00C7E741F823200133CDE75146DCE75B
S1135A80043953F8042B41F8042F9C45F9D8E4E772
S1135A9003690A699B1A30B50CD192001430143191
S1135AA08418114454F8045D51F8042D954203D030
S1135AB005D30123184630BDA042F3D3FAE74FF0D3
S1135AC0FF33F7E72DE9F0470D4607461146284610
S1135AD01446FFF7DDFF061E08D131463846FFF7AE
S1135AE0C2FD0123C0E90436BDE8F087A4BF234604
S1135AF02C4638466168A6BF1D4600260126FFF7DE
S1135B00B2FD2B69C660266905F1140904F114027B
S1135B1002EB860709EB830800F114054FF0000E31
S1135B2052F804AB59F8044B1EFA8AF1A3B2C91A0D
S1135B30230CC3EB1A4303EB214389B24FEA234EF0
S1135B40C84541EA0343944645F8043BE8D8BC45BC
S1135B5004D355F8043D83B10661C5E75CF8041B22
S1135B601EFA81F31A1402EB11429BB243EA024378
S1135B704FEA224E45F8043BE9E7013EE9E72DE907
S1135B80F743012199469046DDE90A65FFF76BFD6D
S1135B90C9F30A540746C9F3130334BBB8F100022E
S1135BA0019327D002A840F8082DFFF701FE0099C1
S1135BB0F0B1019AC0F1200302FA03F30B43C2408F
S1135BC07B610192019BBB61002B14BF0221012167
S1135BD03961C4B1A4F2334404443460C0F13500E3
S1135BE02860384603B0BDE8F08343F48013D5E75A
S1135BF07961E7E701A8FFF7DBFD019B7B610121E8
S1135C0039612030E5E707EB8103A0F232403060D0
S1135C101869FFF7AEFDC0EB4110E1E738B502FBB0
S1135C2001F4214600F056F8054618B12246002139
S1135C30FEF7C2F9284638BD38B50546002945D0D7
S1135C4051F8043C0C1F002BB8BFE41800F027FAED
S1135C501F4A1368104633B9636014602846BDE8D0
S1135C60384000F01DBAA3420CD92168621893424F
S1135C7004BF1A685B68636004BF52182260046042
S1135C80ECE713465A680AB1A242FAD919685818BF
S1135C90A0420BD120680144581882421960DDD11A
S1135CA0106852685A6001441960D7E702D90C237E
S1135CB02B60D3E7206821188A4204BF1168526818
S1135CC0626004BF091821605C60C7E738BD00BF8B
S1135CD0C402002070B5CD1C25F0030508350C2D39
S1135CE038BF0C25002D064601DBA94203D90C233D
